:020000040800F2
:10000000B80C0020658C0008B9890008BB8900087D
:10001000BD890008BF890008C189000800000000F0
:10002000000000000000000000000000C38900087C
:10003000C589000800000000C7890008C9890008B8
:100040009D8C0008A18C0008A58C0008A98C0008D4
:10005000AD8C0008B18C0008B58C0008B98C000884
:10006000BD8C0008C18C0008C58C0008C98C000834
:10007000CD8C0008D18C0008D58C0008D98C0008E4
:10008000DD8C0008E18C0008E58C00080000000011
:10009000000000000000000000000000D1890008FE
:1000A000E98C0008ED8C0008F18C0008F58C000844
:1000B000F98C0008FD8C0008018D0008058D0008F2
:1000C000098D00080D8D0008118D0008158D0008A0
:1000D000198D00081D8D0008218D0008000000000A
:1000E000258D0008298D00082D8D000800000000D6
:1000F000000000000000000000000000318D00083A
:1001000000000000358D0008398D00083D8D000885
:1001100000000000000000000000000000000000DF
:10012000418D0008DB890008458D0008498D0008D5
:100130004D8D0008000000000000000000000000DD
:10014000000000000000000000000000518D0008C9
:10015000558D0008E5890008598D0008EF890008D1
:100160005D8D0008618D00080000000000000000A7
:10017000000000000000000000000000000000007F
:1001800000000000658D0008000000000000000075
:10019000698D00086D8D000840F0200070472DE942
:1001A000F14FB0B0924604910DF142013A9A2B9171
:1001B00099464A7000200AE01AF8011B0498309A08
:1001C00090470028049000F044860D98401C0D9044
:1001D0009AF8000058B12528EED100200021002215
:1001E0000790089109920A910B920C9104E00D98E6
:1001F00000F031BE41F001011AF8010F2028F9D0BA
:1002000023280CD02B2804D02D2805D0302809D045
:100210000BE041F00201EFE741F00401ECE741F0AF
:100220000801E9E741F01001E6E72A280FD1D9F8E3
:10023000002052F8040BC9F8002000280F9003D5C5
:1002400040420F9041F004010AF1010A14E00F92BC
:10025000DFF8082C0AE00F9B934205DA03EB8304D6
:1002600000EB440030380F900AF1010A9AF80000C0
:10027000A0F130030A2BEED39AF800202E2A03D0E7
:100280004FF0FF300E9029E01AF8010F2A2809D10B
:10029000D9F8002052F8040BC9F800200E900AF19A
:1002A000010A1BE02D280CBF0AF1010A00200022E0
:1002B0000E92DFF8A84B0BE040B90E9BA34205DA83
:1002C00003EB830502EB4502303A0E920AF1010A74
:1002D0009AF80020A2F130030A2BEDD3ADF84010BC
:1002E0000FF67C309AF8001000F0DAFE08B11AF828
:1002F000010B8DF842009DF84200682805D19AF85C
:10030000001068290CD1622006E06C2804BF9AF81E
:1003100000106C2904D171208DF842000AF1010A05
:1003200012AA06921AF801BBBBF125002CD01C388A
:1003300000F09781001F022840F29381133800F0EB
:10034000BA84093800F08D81801E00F04F85401E70
:1003500000F0FC84401E022840F28381001F00F060
:10036000F584401F00F0F280401E00F0A484401E7F
:1003700000F0DA80C01E0ED0801E00F09C84C01EEB
:1003800000F0998400F03DBD0122252107928DF8EF
:10039000481000F042BDD9F8000050F8044BC9F8ED
:1003A0000000002C059440F0AB802B994878002881
:1003B00000F0A1804FF0FF340FF6AC2000F088FE73
:1003C000241A40F0468500F028BD01236A4602A9A0
:1003D000304600F00DFE002840F03B85641EF4D14D
:1003E0003096079C12AF74B1309E17F8011B049829
:1003F000B0470028049000F02C850D98401C641E26
:100400000D90F2D130960A9C3021002C8DF800100E
:100410000CDD309E01236A4602A9304600F0E8FD5B
:10042000002840F01685641EF4D13096059F089C84
:1004300074B1309E17F8011B0498B047002804904F
:1004400000F007850D98401C641E0D90F2D1309687
:100450000B9C3021002C8DF800100CDD309E012308
:100460006A4602A9304600F0C3FD002840F0F1843E
:10047000641EF4D1309605980899099C471874B108
:10048000309E17F8011B0498B0470028049000F034
:10049000E0840D98401C641E0D90F2D130960C9CA7
:1004A0003021002C8DF800100CDD309E01236A46AF
:1004B00002A9304600F09CFD002840F0CA84641E6A
:1004C000F4D130969DF8400041077FF581AE2020A1
:1004D000002D8DF800007FF77BAE309C01236A462B
:1004E00002A9204600F084FD002840F0B2846D1E71
:1004F000F4D130946CE60FF65830059000F08DBCC6
:100500000E9D002D04D5204600F002FE044608E0B2
:100510002A460021204600F017FE002814BF041BC5
:100520002C46089400F079BCD9F8001051F8040B5F
:10053000C9F8001020F00002002121F0FF33CDE9BE
:10054000022312AC0594782100F04CBC2B9948781A
:1005500020B14FF0FF340FF6C8202FE79DF842007E
:10056000622860D0682817D06A283FD06C2806D04F
:10057000712847D074282CD07A281DD062E0D9F891
:10058000001051F8040BC9F80010002866D14FF094
:10059000FF340FF6A42011E7D9F8001051F8040B2E
:1005A000C9F8001020B94FF0FF340FF68C2005E792
:1005B0000D99018000F031BCD9F8001051F8040BFE
:1005C000C9F80010002849D14FF0FF340FF6682019
:1005D000F4E6D9F8001051F8040BC9F8001000280F
:1005E0003CD14FF0FF340FF65020E7E6D9F8001069
:1005F00051F8040BC9F8001080B94FF0FF340FF622
:100600003820DBE6D9F8001051F8040BC9F80010C7
:1006100020B94FF0FF340FF62020CFE60D9AD31704
:10062000C0E90023F9E3D9F8001051F8040BC9F828
:10063000001020B94FF0FF340FF6FC10BEE60D9904
:100640000170EAE3D9F8001051F8040BC9F8001062
:1006500020B94FF0FF340FF6E010AFE60D990160BE
:10066000DBE39DF842004C2807BFD9F80010CA1DF3
:10067000D9F80000C21D22F00702C9F80020D2E913
:1006800000010832C9F80020CDE90201C80F02D0EC
:1006900007982D210AE0BDF84000810702D5079890
:1006A0002B2103E0C00705D50798202112AA115479
:1006B000401C079012A807994BF0200300EB010C97
:1006C000DDE90201CDE92C01612BCDF814C021AC8C
:1006D0000BD00E98002848BF062105D404BF4BF06C
:1006E0002000672801D101210E91DDE902014F00B0
:1006F00047EAD0777E15FF174FF0FF32974208BFC9
:10070000964210D1090341EA10510003002908BFA5
:10071000002808D0ABF1610503211A2D089118D3E8
:100720000FF6341110E0DDE902014A00521512F112
:10073000010F11D108030FD1ABF1610503211A2D6F
:1007400008911FD30FF618110322604600F028FD10
:1007500063E30FF60011F7E7DDE902016A4600F0F6
:1007600073FDCDE902014BF02000612811D10598FD
:1007700030220270811C0591BBF1610F0CBF782102
:10078000582102E00FF6D401DEE741700798801C83
:100790000790DDE9020120F0000231F0004308BFBC
:1007A000002A02D10026002542E14BF02008B8F1D2
:1007B000610F40F092800E99002947BF21200190DF
:1007C000491C0191019FDDE92C017F1C00220023BF
:1007D000DDE9024500F070FD38BF85F00045009866
:1007E0008DF88420001F002F00900DF1850632DD6A
:1007F000204629460022002300F078FD2BD21C223F
:1008000000F08EFD04460D4600F028FEFF1F002F6D
:10081000804609DD00F03EFE02460B462046294692
:1008200000F008FF04460D46F01D0721B8F1000F47
:100830000CDD491E5EBF08F00F0200F8012D4FEAE3
:100840002818F3D502E0002200F8012D491EFAD540
:10085000C61D002FCCDC0DF18500361A01980DF174
:1008600085048642D8BF304600282FD4B04206DA2D
:100870000DF185010A5C082AA8BF0F2100DA0021CA
:10088000024621AB9B1800E0401E13F80159521E8E
:100890008D42F9D00F2904D10DF185018B5C5B1CD1
:1008A0008B54002A04D50099091D21AC401C0091ED
:1008B000411E0BD4621813783033DDB23A2DA4BF39
:1008C0005B443A3B491E02F80139F4D50E9A002ADE
:1008D00040F1AC80411E0E91A8E00099DFF800279E
:1008E00047F29750414391FBF2F20092DDE92C452B
:1008F000C2F10702002A25F0004504DD2046294602
:1009000000F04AFB0BE052420020DFF8D81600F05E
:1009100043FB02460B462046294600F0FDFE0446F6
:100920000D46B8F1660F06BF009F0A3706270E98DE
:100930003F18142FC8BF142730208DF884000DF104
:100940008506002F34DD2046294601F009F80146CE
:100950000A4606F1080304200A26B2FBF6F606EB67
:10096000860EA2EB4E02303203F8012C0A22B6FBAF
:10097000F2F202EB820EA6EB4E063036401E03F872
:10098000026DE9D1083F002F03F10806D9DD0846C2
:1009900000F0F8FF02460B462046294600F04AFECA
:1009A0000022DFF8443600F0FBFF04460D46CAE79C
:1009B0000DF18500361A0DF1850404E00098401E03
:1009C000761E0090641C20783028F7D0B8F1660FAE
:1009D00002D10098401C04E0B8F1650F0CBF012063
:1009E00000200E9940188642B8BF701E00281DD402
:1009F000B04204DA215C3429C8BF392100DC30213F
:100A00000246631E9D1800E0401E15F80169521E43
:100A10008E42F9D0392902D1A15C491CA154002A87
:100A200004D50099491C1C46401C00910646009DB7
:100A300001F08CF8406A0778DDF8388030B2002881
:100A400002DC01260FF21C644BF02000662808BF70
:100A50006D1C16D0672845D128B210F1040F47DB72
:100A6000404545DA9DF840006D1C010703D430B2C3
:100A70004045D8BF804628B2B8EB000848BF4FF0C9
:100A800000080FFA85FBBBF1000F00F3B380089854
:100A9000411C0891302205990A54B8F1000F03DC7B
:100AA0009DF84000010704D50898411C089105995C
:100AB0000F5418EB0B0FB8BFC8F100052DB26842F8
:100AC000454432B20B909542B8BF2E46059B08981C
:100AD00036B2099632462146181800F061FBAD1B6C
:100AE0000C95D1E0BBF1610F17D14FF0700B19E0FD
:100AF00030B2404504DA9DF840100A0758BF8046DE
:100B0000B8F1010848BF4FF00008BBF1670F14BFF0
:100B10004FF0450B4FF0650B04E0BBF1410F08BFF0
:100B20004FF0500B0898411C0891B8F1000F05993F
:100B300014F8012B0A5403DC9DF8400001071AD574
:100B40000898411C0891B8F1000F05990F5412DD67
:100B5000761E30B28045B8BF46460598089B32B233
:100B60002146C01800F01CFB089836B230180890D7
:100B7000A8EB06000B9005980899411828B20028A8
:100B800081F800B003D42B204870891C04E02D228A
:100B90004A700546891C6D4200202CAA0AE02B46AB
:100BA0000A2593FBF5F505EB8504A3EB440302F856
:100BB000013B401C2DB2002DF1DC012806DC4BF07E
:100BC0002002652A04BF302201F8012B00282CAA3C
:100BD00008D1302001F8010B06E0401E135C3033D1
:100BE00001F8013B0028F8DC059A08981018091A4A
:100BF000099149E030B229B288421CDA0598089B75
:100C000032B22146C01800F0CBFA089936B27118FA
:100C10000891ABEB0600B8F1000F0B9003DC9DF8D8
:100C20004000020704D5059847540999491C0991C9
:100C3000CDF8308028E00598089B2AB22146C018DC
:100C400000F0AEFA0898761B5844B8F1000F0890EF
:100C500003DC9DF840100A0703D5411C0891059953
:100C60000F5430B28045B8BF46460598089B32B253
:100C700004EB0B01C01800F093FA089836B2301854
:100C80000890A8EB06000B909DF8400000F01400BF
:100C9000102840F0C280079A08980B99821809988A
:100CA0008A1882180C980F998018884280F2B580B3
:100CB000081A0A90B1E09DF84200622808D068281E
:100CC0000ED06A2814D06C281FD0712810D01CE0D8
:100CD000D9F8001051F8040BC9F80010C0B21AE09E
:100CE000D9F8001051F8040BC9F8001080B212E0D6
:100CF000D9F80000C21D22F00702C9F80020D2E98D
:100D000000010832C9F8002006E0D9F8001051F8B7
:100D1000040BC9F800100021CDE902019DF8400044
:100D200002075AD5DDE90201002908BF002854D086
:100D30004BF02002782A50D1079812A930230B5487
:100D4000401C421C079201F800B046E09DF84200AA
:100D5000622808D068280ED06A2814D06C281FD0CA
:100D6000712810D01CE0D9F8001051F8040BC9F814
:100D7000001040B21AE0D9F8001051F8040BC9F87D
:100D8000001000B212E0D9F80000C21D22F00702E4
:100D9000C9F80020D2E900010832C9F8002006E0B5
:100DA000D9F8001051F8040BC9F80010C117CDE9AB
:100DB0000201002902D507982D210AE0BDF8400064
:100DC000810702D507982B2103E0C00705D50798B6
:100DD000202112AA1154401C079012A8079941180B
:100DE0000591594602A800F04DF816E00120079041
:100DF000D9F8001051F8040BC9F800108DF848001C
:100E00000BE001202521BBF1000F07908DF8481061
:100E100003D0022107918DF849B00F9D07980A99D8
:100E20002D1A08986D1A0B992D1A09986D1A0C999C
:100E30002D1A9DF840006D1A41073FF5D2AA2020D7
:100E4000002D8DF800007FF7CCAA309E2C46FFF7CE
:100E5000BCBA4FF0FF3031B0BDE8F08FCBCCCC0C3A
:100E6000686A6C747A4C00007072696E74665F73A5
:100E70003A2062616420257320617267756D656E2A
:100E8000740000002DE9FC4D06468846376940464F
:100E90006F2808BF082405D0FFF77EF9782814BF13
:100EA0000A241024D6E900013C2582468B46B8F17D
:100EB000640F18BFB8F1690F05D1002903D5DAF125
:100EC000000A6BEB4B0BBBF1000F08BFBAF1000F30
:100ED0000CD1306B50B9082C3AD196F83800010784
:100EE00036D530223B2587F83B2031E08DF8008055
:100EF000504659462246002300F02CFE3032D0B234
:100F00006D1E3A2801950EDA7A555046594622460A
:100F1000002300F01FFE82465FEA010B08BFBAF112
:100F2000000F05D108E09DF800001218513AEBE7D8
:100F3000F06879198842DBD3082C09D196F838007B
:100F4000010705D5785D302802D06D1E3020785518
:100F5000C5F13C02306BB26179198242F16008DA66
:100F6000318F821A4FF6EF70014031873262BDE84F
:100F7000F38D00280ED596F8380000F014001028E4
:100F800008D1736B7069316A1B1A5B1A9B1A002BAC
:100F9000C8BF3362BDE8F38D2DE9D04306460F4646
:100FA00014464FF00008DFF8449012E0E00707D540
:100FB00042464B463046394600F0F2FC06460F46A4
:100FC0004046494642464B4600F0EAFC64108046E3
:100FD0008946002CEAD130463946BDE8D08300006E
:100FE000A08601000000F03F84D797410000244014
:100FF000F8B505460E4617461C4600205CB117F8AA
:10100000011BB068A847B06030B1F06A401CF062C4
:101010000020641EF3D1F2BD4FF0FF30F2BD00009E
:101020007072696E74665F733A20256E206469730E
:10103000616C6C6F776564007072696E74663A20DB
:1010400062616420256E20617267756D656E740043
:10105000000000006E616E004E414E00696E660039
:10106000494E4600300030B5016884684218416836
:1010700002EB5103C90703D54C4401E0491C08D1D8
:101080009A4218BF12F9011B01D10C3030BD12F881
:10109000015B002904F8015BF0D4491EF7D5EFE7A6
:1010A000C9B202788A421AB11CBF10F8012FF9E7C1
:1010B00018BF002070478268521C8260426832B1BB
:1010C0000268531C036011704168491E41607047FB
:1010D00080B500B906A005490B681BB1222200218A
:1010E000984701E000F04EFE222002BDB00800202B
:1010F000636F6E73747261696E742068616E646C84
:1011000065723A20626164206D6573736167650082
:1011100000F10103810704D010F8011B820781B19F
:10112000FAD10268A2F10131914311F0803104BF7C
:1011300050F8042FF6E709BAB1FA81F100EBD100BB
:10114000401CC01A70472E00C9B2830706D0521E39
:1011500022D310F8013B9942F7D11FE0083A13D38C
:1011600002F1040241EA012141EA014150F8043B45
:10117000121F21BF4B40A3F1013C2CEA030C1CF0D1
:10118000803FF3D0C9B2001F0832521E24BF10F8AE
:10119000013B91EA030FF8D818BF0120401E7047A9
:1011A00062B38B0708D0521E11F8013B00F8013BD7
:1011B00000F024808B07F6D1830740F0208000BF29
:1011C000103A07D330B4B1E83810103AA0E838101C
:1011D000F9D230BC530724BFB1E80810A0E80810CA
:1011E00044BF51F8043B40F8043BD20724BF31F818
:1011F000022B20F8022B44BF0B7803707047121F9C
:1012000017D35B0009D151F8043B20F8023B1B0CBB
:10121000121F20F8023BF6D20BE051F8043B00F815
:10122000013B1B0A20F8023B1B0C121F00F8013B7C
:10123000F3D238BF121D521E24BF11F8013B00F833
:10124000013BF8D87047000010B5144600F002F8D2
:10125000226010BDC1F30A5343B14A0012F5001FCA
:1012600028D2A3F2FE32A1EB0251704750EA410CA2
:1012700020D001F0004C31EA0C01B1FA81F204BF38
:10128000B0FA80F3D2180B3AB2F120032CBF00FA67
:1012900003F1914041EA0C013EBFC2F1200C20FA5B
:1012A0000CF319439040524240F2FD33D21A01EB45
:1012B000035170470022704741EA030C50EA4C0C7E
:1012C00052EA0C0C4FF4001C09D307D01CEB410F61
:1012D0009CBF1CEB430F8B4208BF824270471CEB44
:1012E000430FFBD8994208BF9042704741EA030C74
:1012F00050EA4C0C52EA0C0C4FF4001C09D307D0F6
:101300001CEB410F9CBF1CEB430F994208BF90425E
:1013100070471CEB410FFBD88B4208BF82427047DD
:10132000124254D440F2FF7C1CEA11530FD06345A3
:1013300031D09B1863453CBF01EB0251704701F06F
:10134000004141EA0C510020AFF30080704750EAA1
:10135000410320D001F0004C91EA0C011CD0B1FAFD
:1013600081F30B3B9A420DD9D21A994051EA0C01F4
:10137000C3F1200C20FA0CFC61449840531C40F24D
:10138000FF7CD7E7914041EA0C01C2F1200C20FA22
:101390000CF3194390407047B0FA80F31533202BBB
:1013A000E0D3202AEED3203A203B9A4209D9D21A20
:1013B00000FA03F141EA0C010020531C40F2FF7CCB
:1013C000B8E700FA02F141EA0C01002070475242EE
:1013D00040F2FF7C1CEA11530DD06345DBD0B2EB29
:1013E000030C3CBFA1EB025170470CF1010221EA52
:1013F000035141F4801150EA410CCCD001F0004C73
:10140000352A27DC30B481EA0C01B2F1200309DA75
:10141000C2F12003044601FA03F5D0402843D1402D
:101420009C400CE0C3F12002450020FA03F418BFF1
:1014300044F0010421FA03F091400C43002174F1BF
:10144000004550F1000051EB0C01244230BC7FF408
:101450007BAF70476146002076E70000C1F30A5376
:1014600040F21E42D31A0CDDCA0283F3070342EA9C
:10147000505242F00042DA4002EBE17282EAE1703F
:1014800070476FEAE17203F2E13008B182F0004088
:101490007047000010F0004160B148BF4042B0FA10
:1014A00080F29040D21CC2F5846241EA025202EB03
:1014B000D02140057047000070B491EA030F4FF04F
:1014C000004540F1BF806B40841A71EB030604D2E3
:1014D0006E40001BB141121973414FF4001C1CEB0C
:1014E000410F34BF7CEB430683E00C0DA4EB135695
:1014F000362E00F37C80012E45EAC32341DC43EA0B
:10150000525312BFD20292025B08240545EAC12160
:1015100041EA5051D2EBC020994125D407D1B0FA0D
:1015200080F610FA06F162D00020203608E0B1FA09
:1015300081F6B140C6F1200220FA02F21143B04018
:101540004FEAF474B4EB465434F001064FEA7404E5
:101550000AD8D6F50016760D04F00044F04061FA82
:1015600006F25040F1404840C00A40EA415021F0A4
:10157000004128BF5FEA500550F1000044EBD12143
:1015800035E0DB0A45EAC121C90AB6F120050EDDC6
:1015900042EA0242120CC5F1200603FA06F6EB40BD
:1015A00042EA06056D42984161F100010DE062FAE0
:1015B00006F5F240554063FA06FC82EA0C02F3405D
:1015C0005A406D42904161EB030111F4801F05D137
:1015D000641E620502D06D004041494121F4801132
:1015E000430875F1004350F1000041EB045170BC19
:1015F00070471CEB410F15D223F0004352EA43061B
:101600000BD04FEA4C0CBCEB410F04D80C0D661EFE
:10161000342EB7DDEBE7801A994150EA410608BF46
:101620000021E4E708BF1CEB430F28BF6FF0000167
:10163000DDE7000070B491EA030F4FF000457FF53D
:1016400043AF6B40841A71EB030603D2001BB14118
:10165000121973414FF4001C1CEB410F34BF7CEB9B
:10166000430442E00C0DA4EB1356352E4FDC45EA43
:10167000C323DB0A45EAC121C912B6F120050DDDFD
:1016800063FA05F6EB4086EA0305124218BF45F0FF
:101690000105C01851F100010CD213E062FA06F501
:1016A000F2405540F3415A40B340F3405A4080184D
:1016B000594107D349085FEA30005FEA350528BF82
:1016C00045F0010501F58011420875F1004250F125
:1016D000000041EB04514E0016F5001F70BC38BFEE
:1016E00070470020090D090570471CEB410F10D20F
:1016F00052EA43060BD0BCEB410F05D80C0DAB43AF
:10170000661E342EB6DD02E0AB438018594170BC32
:10171000704770BC70470000F0B540F2FF7581EA79
:10172000030C0CF0004C15EA11541DBF15EA1357B9
:10173000AC42AF42E5E0BC41C1F31301C3F3130374
:10174000801A994143F4801304D2641E0018494161
:1017500080185941C90241EA5051B1FBF3F603FB2D
:101760001611A2FB0675D7EBC020A94102D2761E46
:1017700080185941C90241EA5051B1FBF3FE03FB05
:101780001E11A2FB0E75D7EBC020A94103D2AEF10A
:10179000010E80185941890241EA9051760546EAC6
:1017A0008E2EB1FBF3F603FB1611A2FB0675D7EBE9
:1017B0008020A94102D2761E80185941C90241EA0F
:1017C00050514EEA060EB1FBF3F603FB1611A2FBD5
:1017D0000675D7EBC020A94102D2761E8018594168
:1017E000C90241EA5051B1FBF3F703FB1711A2FB09
:1017F0000735D3EBC020A94167F100070CBF0042B9
:1018000047F0010766F3D5274FEA1E31B80814F5F3
:10181000806412DDBD0775F1004250EB0E5051EBB4
:10182000045111F5801F5CBF41EA0C01F0BD4CF082
:101830007F6141F0E0410020F0BDBD076D0840EA46
:101840000E5041F48011D4F10104B4F120060ADAFB
:10185000C4F120060200E04001FA06F3E14018431B
:10186000B24015430EE0342C13DCC6F1200445EAE7
:1018700040056D0820FA06F2154321FA06F0A14052
:101880000D43002175F1004250F1000051EB0C01B5
:10189000F0BD00205FEA0C01F0BDCFB992185B41AA
:1018A000B3FA83F704BFB2FA82F6BF190B3FB7F160
:1018B00020062FBF02FA06F3BB40C7F1200622FA2A
:1018C00006F638BF3343BA401CB1E419641E33E74F
:1018D0007F4231F00041B1FA81F404BFB0FA80F6E2
:1018E000A4190B3CB4F120062FBF00FA06F1A14069
:1018F000C4F1200620FA06F638BF3143A0403C1B55
:101900001AE7AC421ABF05EA1357AF4212E050EA99
:1019100041061CBF52EA4306BFE750EA4107304682
:1019200061461CBF41EA0551F0BD52EA430C08BFB5
:10193000C143F0BD00204FF4001616EB410F98BFD5
:1019400016EB430F08BF16EB410F24BFC14305E060
:1019500016EB430F0CBF61464CEA0551F0BD000089
:10196000400D40F21E4C40EAC120BCEB115C40F03F
:10197000004003D48CF30701C84070476FEAE17060
:101980007047000050B1B0FA80F18840C91CC1F521
:101990008461090501EBD02140057047014670477D
:1019A00030B540F2FF7C1CEA11541DBF1CEA1355F0
:1019B000644565453FE0641981EA030C6FF35F53AA
:1019C0000CF0004C43F48013C90241F0004141EA9D
:1019D000505EC5021100A5FB020200284FF0000076
:1019E000EEFB01204FF00001E3FB052118BF42F0A0
:1019F0000102401800214941E3FB0E01A4F5806477
:101A00000D0302D292184041494154F1010470DDA6
:101A1000450872F1004250F1000051EB0451A1F56C
:101A2000801102D441EA0C0130BD40F2FF7E4CEA45
:101A30000E51002030BD0CEA1355644518BF6545B2
:101A400081EA030C0CF0004C41D050EA410E1CBF5F
:101A500052EA430E02E06146002030BD24422C448D
:101A60001BD15FEA050EF6D0090302BF0146002034
:101A7000AEF1140EB1FA81F5AEEB050401FA05FEE4
:101A80000C35C5F1200100FA05F5C8404EEA000EFC
:101A90006FF35F5343F480139CE733F00043B3FAD2
:101AA00083F504BFB2FA82FE75440B3D641BB5F1A9
:101AB000200E2FBF02FA0EF3AB40C5F1200E22FA22
:101AC0000EFE38BF43EA0E03AA40641C7CE750EACE
:101AD000410E14BF52EA430E6FF000014FF400159F
:101AE00015EB430F8EBF194615EB410F9DE7B4D898
:101AF00030BDD4F10104B4F120050FDAC4F12005A2
:101B0000520828BF42F0010210FA05FE01FA05F55D
:101B10007244E2BFE0402843E1400FE0352C9ADCFC
:101B2000C5F1200452EA400220FA05F218BF42F043
:101B3000010231FA05F0A1400A43002172F100428E
:101B400050F1000051EB0C0130BD0000004870471F
:101B5000AC000020BBBBE1B1B2F5803F80F07E80DD
:101B6000022A1ED98C46B1FBF2F102FB11C31B0401
:101B700043EA1043B3FBF2FC02FB1C3380B240EAA1
:101B80000343B3FBF2F002FB103240EA0C400023A7
:101B90007047022A05D98446B0FBF2F002FB10C25E
:101BA00070474AB105D100F0010249085FEA3000F0
:101BB000704700220023704700F0E8B80B000200D5
:101BC000002100207047904271EB030CF6D3B3F56F
:101BD000803F2FD2F0B5B3FA83F7B1FA81F4A7F1C1
:101BE0000F0E3D1B5340CEF1200602FA0EF2F341D8
:101BF0005340B5F10F0746D80F3C2C444140C4F187
:101C00002006A040F1414140B1FBF3F603FB161161
:101C1000A2FB0645001BA94102D2761E801859413D
:101C200080EA010221FA0EF362FA0EF200215A4014
:101C30003046F0BD30B4B1FBF3FC03FB1C11A2FB3A
:101C40000C45001BA94103D2ACF1010C801859418D
:101C500030BC02460B46604600217047B2F1807FDF
:101C600065D3F0B5B2FA82F7B1FA81F4C7F10F0685
:101C70003D1B22FA06F307F1110EF24120355A40BE
:101C8000B5F10F07B8D94140C4F12006A040F14199
:101C90004140B1FBF3FC03FB1C11A2FB0C45001BF4
:101CA000A94103D2BCF1010C801859410F2F12D366
:101CB0000F3FC90341EA5041B1FBF3F603FB161194
:101CC000A2FB0645D4EBC030A94102D2761E801893
:101CD000594146EACC3C07B34140C7F12006B84021
:101CE000F1414140B1FBF3F603FB1611A2FB06459F
:101CF000001BA94102D2761E8018594180EA0102D8
:101D000021FA0EF3C7F1200462FA0EF20CFA07F082
:101D10005A402CFA04F13043F0BD80EA010221FA66
:101D20000EF3002162FA0EF260465A40F0BD8C4676
:101D3000B1FBF2F102FB11C31B0243EA1063B3FBD8
:101D4000F2FC02FB1C331B024CEA002043EA106346
:101D5000B3FBF2FC02FB1C331B024CEA002043EAFB
:101D60001063B3FBF2FC02FB1C331B024CEA0020A5
:101D700043EA1063B3FBF2FC02FB1C324CEA002086
:101D800000237047012000F003B8000070470000F6
:101D900080B500F007F8024A11001820ABBEFBE73F
:101DA0002600020010B500F03BF8020000230024DA
:101DB000E4431068A04203D011000220ABBE1360C0
:101DC0005068A04203D0111D0220ABBE536010BD6D
:101DD000F0B583B0040000F023F8A10047183D6877
:101DE0000026F643B54216D1AFF300803D68B542F8
:101DF0000FD100BF09A00090002C01D1002000E00D
:101E0000042001900320029069460120ABBE05002A
:101E10003D60AFF30080280003B0F0BD3A74740059
:101E2000004870473001002010B50400002C01D19B
:101E3000012035E0A0690028FFD194F84100002876
:101E400005D1002084F84000200000F061FE24202D
:101E500084F841002068C06830F400502168C860F0
:101E6000200000F0B7FC2068006930F49040216841
:101E700008612068406930F02A00216848612068C4
:101E8000C06850F400502168C860002060642020C1
:101E900084F84100202084F8420000206063002084
:101EA00010BD73B50400150094F84100202843D1FB
:101EB0000198002803D0280080B2002801D1012019
:101EC0003BE001982062A584E58400206064212025
:101ED00084F841001948A16BC8631948A16B0864D4
:101EE0001848A16BC8640020A16B086501AE2B00E7
:101EF0009BB22068021D3168A06B00F007FF00282C
:101F000006D010206064202084F84100012014E0F5
:101F10007FF04000216808602068143050E8000F0E
:101F200050F080000100206810F1140242E8001017
:101F30000028F1D1002000E0022076BD63230008D4
:101F4000B7230008952400087CB505000C00160096
:101F500095F84200202832D1002C03D0300080B206
:101F6000002801D101202BE00120286300206863B4
:101F7000320092B22100280000F0B8FA0100286B6C
:101F8000012817D100200090286800680090286878
:101F900040680090009828680C3050E8000F50F01E
:101FA00010000200286810F10C0343E8002000280C
:101FB000F1D101E0012001000800C0B200E00220E0
:101FC00076BD10B5040020680C3050E8000F30F4E6
:101FD00090700100206810F10C0242E80010002807
:101FE000F1D12068143050E8000F40084000010093
:101FF000206810F1140242E800100028F1D1206B93
:1020000001280DD120680C3050E8000F30F010008E
:102010000100206810F10C0242E800100028F1D104
:1020200020684069400621D52068143050E8000F30
:1020300030F040000100206810F1140242E8001066
:102040000028F1D1E06B002810D00020E16B08657A
:10205000E06B00F0A1FE002808D0E06B01F002F870
:10206000202803D110206064032007E00020E085D1
:10207000202084F8420000202063002010BD2DE9BC
:10208000FC470600306807683068D0F80C8030687C
:10209000D0F814900020002517F00F04002C08D170
:1020A000B80606D55FEA886003D5300000F015FB5E
:1020B00055E1002C77D05FEAC97002D418F4907F04
:1020C00071D03800C00706D55FEAC85003D5706CE0
:1020D00050F001007064780706D54846C00703D564
:1020E000706C50F002007064B80706D54846C0070F
:1020F00003D5706C50F004007064380709D55FEAAE
:10210000886002D44846C00703D5706C50F00800C0
:102110007064706C002845D0B80605D55FEA886009
:1021200002D5300000F0D9FA30684069800910F01B
:1021300001000500706C000701D4002D2DD0300087
:1021400000F04AFA30684069400622D53068143001
:1021500050E8000F30F040000100306810F1140228
:1021600042E800100028F1D1F06B00280DD00FF2EA
:10217000D140F16B0865F06B00F05CFE002811D0D7
:10218000F06BF16B096D88470CE0300001F04FF8FF
:1021900008E0300001F04BF804E0300001F047F8AF
:1021A00000207064DBE0306B012840F0C680F80648
:1021B00040F1C3805FEAC86040F1BF80002000901A
:1021C000306800680090306840680090009830687F
:1021D000406940066ED5F06B0068D0F804A0504608
:1021E00080B2002855D05046B18D80B2884250D27E
:1021F000A6F82EA0F06BC069B0F5807F3FD03068A4
:102200000C3050E8000F30F480700100306810F19D
:102210000C0242E800100028F1D13068143050E878
:10222000000F400840000100306810F1140242E83D
:1022300000100028F1D13068143050E8000F30F061
:1022400040000100306810F1140242E8001000283C
:10225000F1D1202086F842000020306330680C3035
:1022600050E8000F30F010000100306810F10C024F
:1022700042E800100028F1D1F06B00F08DFD022043
:102280007063B18DF08D091A89B2300000F091FFB2
:102290000FE05046B18D80B288420AD1F06BC06920
:1022A000B0F5807F05D102207063B18D300000F061
:1022B00080FF54E0B6F82CA0F08DBAEB000AF08D48
:1022C000002839D0504680B2002835D030680C3014
:1022D00050E8000F30F490700100306810F10C02EB
:1022E00042E800100028F1D13068143050E8000FA7
:1022F000400840000100306810F1140242E800106C
:102300000028F1D1202086F8420000203063306898
:102310000C3050E8000F30F010000100306810F170
:102320000C0242E800100028F1D1022070635146EF
:1023300089B2300000F03DFF11E0380606D55FEAB3
:10234000086003D5300000F085F908E0780606D56E
:102350005FEA486003D5300000F0AFF9FFE7BDE861
:10236000F38738B50400A56B20680068C0051ED44B
:102370000020E8842868143050E8000F30F0800016
:102380000100286810F1140242E800100028F1D181
:1023900028680C3050E8000F50F040000100286819
:1023A00010F10C0242E800100028F1D102E02800F0
:1023B00000F058FF31BD38B50400A56B280000F0CF
:1023C00063FF31BD38B50400A56B20680068C00507
:1023D0003FD40020E88528680C3050E8000F30F426
:1023E00080700100286810F10C0242E800100028FB
:1023F000F1D12868143050E8000F40084000010077
:10240000286810F1140242E800100028F1D1286871
:10241000143050E8000F30F040000100286810F13F
:10242000140242E800100028F1D1202085F8420073
:10243000286B01280DD128680C3050E8000F30F0CF
:1024400010000100286810F10C0242E8001000287A
:10245000F1D100206863286B012804D1A98D2800E0
:1024600000F0A7FE02E0280000F00FFF31BD38B5F4
:102470000400A56B01206863286B012806D1A98D93
:10248000490889B2280000F094FE02E0280000F01C
:10249000FDFE31BDF8B506000020B76B39684C6908
:1024A000E40914F0010497F84110212906D1002C09
:1024B00004D00020F884380000F07CF838684569C2
:1024C000AD0915F0010597F84200222806D1002D2C
:1024D00004D00020F885380000F07EF8786C50F0C9
:1024E00010007864380000F0A2FEF1BD73B504005E
:1024F00015000198A062A58500206064222084F860
:102500004200DFF8C005E16BC863DFF8BC05E16B92
:102510000864DFF8B805E16BC8640020E16B08656A
:1025200001AE2B009BB232682068011DE06B00F009
:10253000EDFB002806D010206064202084F84200C3
:10254000012036E00020009020680068009020689C
:10255000406800900098206900280DD020680C3059
:1025600050E8000F50F480700100206810F10C0258
:1025700042E800100028F1D12068143050E8000F24
:1025800050F001000100206810F1140242E8001030
:102590000028F1D12068143050E8000F50F04000BE
:1025A0000100206810F1140242E800100028F1D167
:1025B000002076BD01680C3151E8001F31F0C001E8
:1025C0000A00016811F10C0343E800210029F1D150
:1025D000202180F84110704701680C3151E8001F3C
:1025E00031F490710A00016811F10C0343E80021F5
:1025F0000029F1D10168143151E8001F4908490050
:102600000A00016811F1140343E800210029F1D107
:10261000016B01290DD101680C3151E8001F31F027
:1026200010010A00016811F10C0343E800210029A0
:10263000F1D1202180F84210002101637047000091
:1026400038B50400A56B0020E885280000F0EFFDF8
:1026500031BD0000010091F8410021282BD188688C
:10266000B0F5805F0DD1086900280AD1086A020020
:102670001088C005C00D0B685860086A801C08628D
:1026800005E0086A431C0B6200780B685860C88C30
:10269000401EC88480B200280BD10868C06830F0A2
:1026A00080000B68D8600868C06850F040000B6874
:1026B000D860002000E00220704710B504002068B8
:1026C000C06830F040002168C860202084F84100D4
:1026D000200000F0C7FD002010BD7CB504000025DF
:1026E000002694F84200222872D1A068B0F5805FDD
:1026F0000DD1206900280AD1A06A06002068406830
:10270000C005C00D3080A06A801CA06217E0A06ADE
:102710000500A068B0F5805F05D0A068002806D14C
:102720002069002803D120684068287004E02068F0
:10273000406810F07F002870A06A401CA062E08D05
:10274000401EE08580B2002840D12068C06830F08B
:1027500020002168C8602068C06830F4807021685B
:10276000C860206840694008400021684861202016
:1027700084F8420000206063206B012821D10020F2
:10278000206320680C3050E8000F30F0100001008A
:10279000206810F10C0242E800100028F1D12068F6
:1027A0000068C00608D500200090206800680090EE
:1027B0002068406800900098A18D200000F0F9FC8E
:1027C00002E0200000F061FD002002E0002000E0B7
:1027D000022076BD2DE9F84F84B005002868016914
:1027E00031F44051E868014328680161A96828690B
:1027F000014368690143E869014303912868C1689E
:10280000B3480140039801432868C16028684169C2
:1028100031F44071A8690143286841612868AD49D5
:10282000884203D02868AC49884203D100F0DEFD1D
:10283000040002E000F0CFFD0400E869B0F5004FAD
:1028400040F09F807FF0630A5FF002085FF00009AC
:102850001926002722000023A6FB020106FB031114
:1028600007FB0211CDE9000168680021A8FB0023E5
:1028700008FB013309FB0033DDE90001FFF76AF9CA
:102880006421B0FBF1F0009022000023A6FB0201BE
:1028900006FB031107FB0211CDE901016868002165
:1028A000A8FB002308FB013309FB0033DDE901012C
:1028B000FFF750F9834622000023A6FB020106FB26
:1028C000031107FB0211CDE9010168680021A8FB93
:1028D000002308FB013309FB0033DDE90101FFF7A9
:1028E00039F96421B0FBF1F00AFB00B0C0003230CE
:1028F0006421B0FBF1F0400010F4F870009910EB87
:102900000110009022000023A6FB020106FB031128
:1029100007FB0211CDE9010168680021A8FB002333
:1029200008FB013309FB0033DDE90101FFF712F970
:10293000834622000023A6FB020106FB031107FBCE
:10294000021106000F0068680021A8FB002308FBA5
:10295000013309FB003330003900FFF7FBF8642135
:10296000B0FBF1F00AFB00BA5FEACA003230642122
:10297000B0FBF1F111F00701009809182868816097
:102980009CE05FF004085FF000097FF0630A1926FD
:10299000002722000023A6FB020106FB031107FB10
:1029A0000211CDE9000168680021A8FB002308FBA3
:1029B000013309FB0033DDE90001FFF7CBF86421A7
:1029C000B0FBF1F0009022000023A6FB020106FB01
:1029D000031107FB0211CDE9010168680021A8FB82
:1029E000002308FB013309FB0033DDE90101FFF798
:1029F000B1F8834622000023A6FB020106FB031167
:102A000007FB0211CDE9010168680021A8FB002342
:102A100008FB013309FB0033DDE90101FFF79AF8F8
:102A20006421B0FBF1F00AFB00B0000132306421F8
:102A3000B0FBF1F010F0F000009910EB01100090E5
:102A400022000023A6FB020106FB031107FB021173
:102A5000CDE9010168680021A8FB002308FB0133D0
:102A600009FB0033DDE90101FFF774F8834622001A
:102A70000023A6FB020106FB031107FB021106005F
:102A80000F0068680021A8FB002308FB013309FB45
:102A9000003330003900FFF75DF86421B0FBF1F03E
:102AA0000AFB00BA5FEA0A1032306421B0FBF1F190
:102AB00011F00F01009809182868816005B0BDE881
:102AC000F08F0000C52300086F240008952400083B
:102AD000F369FFFF001001400014014080B5494830
:102AE000494901605FF4E1314160002181600021CA
:102AF000C160002101610C2141610021816100213F
:102B0000C161FFF791F9002801D000F0FBFC01BD85
:102B1000F8B586B004001421002201A800F0F4FCEE
:102B20002068394988426AD10020009037480168FE
:102B300051F020010160006810F020000090009822
:102B4000002000903248016851F0010101600068E6
:102B500010F00100009000984FF4C0500190022046
:102B6000029000200390032004900820059001A902
:102B7000284800F0FDFC284D284828605FF02066BA
:102B80006E604020A8600020E8604FF480672F61ED
:102B9000002068610020A8610020E8610020286210
:102BA00000206862280000F03FF8002801D000F003
:102BB000A9FCA563AC631A4D1A4828606E6000201A
:102BC000A8600020E8602F61002068610020A861F3
:102BD0000020E8610020286200206862280000F0E0
:102BE00023F8002801D000F08DFCE563AC630022DF
:102BF0000021472000F074FE472000F086FE07B059
:102C0000F0BD0000AC060020001401404438024032
:102C1000303802400000024098030020A0640240C7
:102C2000F80300202864024070B50400002600F07C
:102C300089FE0500002C01D1012066E0606A0028B1
:102C4000022084F83500002084F8340020680068F1
:102C5000400840002168086020680068C0070BD564
:102C600000F070FE401B0628F6D32020606503208C
:102C700084F83500032048E020680168DFF8480444
:102C8000014060680143A0680143E0680143206996
:102C9000014360690143A0690143E0690143206A7F
:102CA0000143606A042804D1E06A01430800216BF3
:102CB00001432068016020684669F608F600606AF2
:102CC0000643606A042810D1A06A0643E06A00281F
:102CD0000BD0200000F0FEF9002806D040206065EF
:102CE000012084F8350001200FE0206846612000B3
:102CF00000F0D1F901003F22E06D82408A6000209F
:102D00006065012084F83500002070BD2DE9F8438E
:102D100004000D0016001F005FF00008D4F8589062
:102D200094F83400012801D1022033E0012084F816
:102D3000340094F83500012825D1022084F83500AC
:102D4000002060653B0032002900200000F08CF973
:102D50003F21E06D8140C9F808102068006850F0FC
:102D6000160021680860206C002805D020680068E3
:102D700050F00800216808602068006850F00100E9
:102D80002168086004E0002084F8340002208046B6
:102D90004046C0B2BDE8F28370B50400A56D00F0F6
:102DA000D1FD060094F83500022806D08020606529
:102DB000002084F8340001203BE02068006830F0F7
:102DC0001600216808602068406930F080002168A2
:102DD0004861206C002802D1A06C002805D0206832
:102DE000006830F00800216808602068006840082A
:102DF00040002168086020680068C0070ED500F018
:102E0000A1FD801B0628F6D320206065032084F8EE
:102E10003500002084F8340003200AE03F21E06DF3
:102E20008140A960012084F83500002084F8340036
:102E3000002070BD010091F83500022803D08020E9
:102E40004865012009E0052081F835000868006820
:102E5000400840000A68106000207047F8B5040080
:102E600000200090DFF8640200684FF41651B0FBB8
:102E7000F1F6A76D3D680821E06D11FA00F00542FA
:102E800010D02068006840070CD52068006830F03A
:102E9000040022681060E06D8140B960606D50F000
:102EA00001006065E06D2900C140C8070BD52068AE
:102EB0004069000607D50121E06D8140B960606D71
:102EC00050F0020060650421E06D11FA00F0054247
:102ED0000AD020680068800706D5E06D8140B9609F
:102EE000606D50F0040060651021E06D11FA00F093
:102EF00005422CD020680068000728D5E06D81408D
:102F0000B96020680068400311D52068006800039C
:102F100006D4206C00281AD02000216C884716E0C7
:102F2000A06C002813D02000A16C88470FE0206817
:102F30000068C00505D42068006830F008002168EA
:102F40000860206C002802D02000216C88472021D6
:102F5000E06D11FA00F005425FD020680068C006FD
:102F60005BD5E06D8140B96094F83500052828D123
:102F70002068006830F01600216808602068406909
:102F800030F0800021684861206C002802D1A06CDC
:102F9000002805D02068006830F00800216808602B
:102FA0003F21E06D8140B960012084F835000020A8
:102FB00084F83400206D002802D02000216D88475D
:102FC0004FE020680068400311D5206800680003C6
:102FD00006D4606C002820D02000616C88471CE07B
:102FE000E06B002819D02000E16B884715E02068CD
:102FF0000068C0050BD42068006830F0100021681C
:103000000860012084F83500002084F83400E06B6B
:10301000002802D02000E16B8847606D002820D096
:10302000606DC00717D5052084F83500206800685A
:1030300040084000216808600098401C00908642CB
:1030400003D320680068C007F6D4012084F8350057
:10305000002084F83400E06C002802D02000E16CED
:103060008847F1BD406D704730B40468246834F47B
:10307000802405682C60046863608468402C04D157
:103080000468A2600468E16003E00468A160046869
:10309000E26030BC7047017801F0FF01103918225E
:1030A000B1FBF2F10A4A525CC265042905D30268F9
:1030B000920A9202121D826503E00268920A92024D
:1030C0008265806D704700003F8010F0A8000020EE
:1030D000848C000810B402000020936A91690029D2
:1030E00016D1002B05D0022B03D008D3032B0DD013
:1030F0000DE0D16AC90101D50121080035E0D16A8E
:10310000B1F1C07F01D1012108002EE02DE02CE0BB
:103110009169B1F5005F18D1002B05D0022B03D0C7
:1031200005D3032B09D00FE0012108001DE0D16A6F
:10313000C90101D50121080017E0D16AB1F1C07FB2
:1031400001D10121080010E00FE019000029022937
:1031500002D9C91E03D008E00121080005E0D16AA8
:10316000C90101D501210800FFE7C0B210BC7047BA
:1031700080B5404800F0ECFB01BDF8B504000D003F
:1031800016001F0025606660278101203A4981F8FA
:10319000C800228961682068FEF7D6FE2068C06BEF
:1031A0000068006830F008002168C96B0968086091
:1031B000F1BD2DE9F84304000D0020682F49884235
:1031C00033D12D4E96F8C800012821D1280080B2B5
:1031D000C82805D200202A492A0092B2885406E065
:1031E000C7200500002026492A0092B288542F00EB
:1031F000BFB27F1CDFF88880B1463A00414648469E
:10320000FDF7CEFF002086F8C80001201D49487058
:10321000C8221B492000FEF797FEE06B006800689B
:1032200030F00800E16B09680860BDE8F18310B573
:10323000040020681149884213D12000FEF7C1FE26
:10324000C8220F492000FEF77FFEE06B006800688F
:1032500030F00800E16B096808600120064981F838
:10326000C80010BD0168054A914202D10121054AFA
:1032700091707047140800203C01002000140140A8
:1032800008020020000000207047704770470000CF
:103290002DE9F04104000D00002C01D1012095E042
:1032A000584F386810F00700A84207D23D703868C0
:1032B00010F00700A84201D0012087E020788007A5
:1032C00016D52078400704D54F48016851F4E051E5
:1032D00001602078000704D54B48016851F4604133
:1032E000016049490A6832F0F002A06802430A60AE
:1032F0002078C00738D56068012805D143480068A8
:10330000800313D4012061E06068022802D0606865
:10331000032805D13D480068800107D4012055E00D
:103320003A480068800701D401204FE0DFF8D880D8
:10333000D8F800108908890060680143C8F80010B7
:1033400000F000FB0600D8F8000010F00C006168E7
:10335000B0EB810F08D000F0F5FA801B41F2893103
:103360008842F0D3032031E0386810F0070085422E
:1033700007D23D70386810F00700A84201D0012044
:1033800024E02078400706D51F490A6832F4E0524D
:10339000E06802430A602078000707D51A480168F0
:1033A00031F46041226951EAC201016000F0D8FAAB
:1033B0001749154A1268C2F30312895CC8401549BF
:1033C00008601548006800F019FB0020BDE8F08196
:1033D00010480068704780B5FFF7FAFF0F490A4AA6
:1033E0001268C2F38222895CC84002BD80B5FFF733
:1033F000EFFF0A49044A1268C2F34232895CC840AE
:1034000002BD0000003C0240083802400038024083
:10341000548C0008A8000020A40000208C8C000818
:1034200080B500F011FB00F017F800F027FB00F06A
:10343000BFFB00F0DDFB00F01EFC00F05DFC00F0C7
:103440009CFC00F0DBFCFFF749FB00F081FE00F084
:1034500035FD00F03FFFFEE780B592B0302100223D
:1034600006A800F051F81421002201A800F04CF841
:10347000002000902148016851F0805101600068EF
:1034800010F0805000900098002000901C480168C7
:1034900051F440410160006810F4404000900098F1
:1034A000022006900120099010200A9002200C9022
:1034B00000200D9008200E9064200F9002201090A4
:1034C0000420119006A800F071FF002801D000F040
:1034D00019F80F20019002200290002003904FF471
:1034E0008050049000200590032101A8FFF7D0FE32
:1034F000002801D000F006F813B000BD40380240AB
:103500000070004072B6FEE762F30F2262F31F42C2
:10351000401810F0030308D0C91A1FD3DB0748BFB7
:1035200000F8012D28BF20F8022D130030B41446F6
:103530001546103928BF20E93C00FAD8490728BFB2
:1035400020E90C0048BF40F8042D890028BF20F86E
:10355000022D48BF00F8012D30BC7047C91818BFB4
:1035600000F8012DCB0728BF00F8012D704700009F
:10357000F8B50024002500260023102B80F0FC80E5
:103580005FF0010C1CFA03F214000A6822401500D7
:10359000A54240F0EF800A7912F00302012A04D01C
:1035A0000A7912F00302022A22D187685FF0030E23
:1035B0001A00D2B252001EFA02FE37EA0E07D1F804
:1035C0000CE01A00D2B252001EFA02FE5EEA0707B1
:1035D000876042681CFA03FC32EA0C02D1F804C08E
:1035E000CCF3001C1CFA03FC5CEA020216004660E5
:1035F0000A7912F00302032A14D0C7685FF0030CA3
:103600001A00D2B252001CFA02FC37EA0C07D1F8B9
:1036100008C01A00D2B252001CFA02FC5CEA07078A
:103620003E00C6600A7912F00302022A1ED11A0077
:10363000D20810EB8202176A5FF00F0C13F007023A
:10364000D2B292001CFA02FC37EA0C07D1F810C083
:1036500013F00702D2B292001CFA02FC5CEA0707E0
:103660003E001A00D20810EB8202166207685FF073
:10367000030C1A00D2B252001CFA02FC37EA0C0703
:1036800091F804C01CF0030C1A00D2B252001CFACC
:1036900002FC5CEA07073E0006604A6812F4403FFD
:1036A00068D000220092444A176857F48047176098
:1036B000126812F480420092009ADFF800C11A00EA
:1036C00092085CF822705FF00F0E13F00302D2B282
:1036D00092001EFA02FE37EA0E07394A904201D1E3
:1036E000002614E0374A904201D101260FE0364A05
:1036F000904201D102260AE0344A904201D10326C9
:1037000005E0334A904201D1042600E00726F6B2D4
:1037100013F00302D2B29200964037431A00920887
:103720004CF822702B4E3268AA43D1F804C05FEAED
:10373000CC2C00D52A433260274F3E68AE43D1F8E7
:1037400004C05FEA8C2C00D52E433E60234F3A68BC
:10375000AA43D1F804C05FEA8C3C00D52A433A6002
:103760001F4F3E68AE43D1F804C05FEACC3C00D5A1
:103770002E433E605B1C00E7F1BD1300DBB2002B63
:1037800003D00B009BB2836103E00B009BB21B04D0
:103790008361704710B5040012480168220092B29C
:1037A000114206D0210089B20160200080B200F0F1
:1037B000D2FD10BD0000000044380240083801402E
:1037C000000002400004024000080240000C0240D9
:1037D00000100240083C01400C3C0140043C014008
:1037E000003C0140143C014010B410F00703DFF826
:1037F000344122684FF6FF010A4052EA0322DFF803
:1038000028110A43226010BC7047DFF818010068D5
:10381000C0F3022070470000010049B200290AD419
:10382000012210F01F018A40DFF8001103005BB293
:103830005B0941F82320704710B4020052B2002AFD
:1038400005D40A013A4B040064B21A5508E00A0193
:10385000384B040064B214F00F041B1903F8042C55
:1038600010BC704770B4030013F00704D4F10700D4
:10387000052801D3042001E0D4F10700251D072D00
:1038800001D2002500E0E51E012616FA00F0401ED8
:103890000140A94016FA05F56D1E2A4011430800A3
:1038A00070BC704710B50400601EB0F1807F01D37A
:1038B00001200EE0601E204908600F215FF0FF30FC
:1038C000FFF7BAFF00201D49086007201C49086067
:1038D000002010BD10B504002000FFF785FF10BDCB
:1038E0002DE9F04104000D0016000027FFF78DFFC1
:1038F0008046320029004046FFF7B4FF0100200057
:1039000040B2FFF799FFBDE8F08110B50400200038
:1039100040B2FFF781FF10BD10B504002000FFF793
:10392000C1FF10BD0CED00E00000FA0500E100E071
:1039300000E400E018ED00E014E000E018E000E032
:1039400010E000E001480068704700BFA8080020B0
:1039500000210160002141600021018170470000C9
:103960002DE9F04100240025002600271F480068AB
:1039700010F00C00002804D0042804D0082804D03B
:1039800031E01B4830E01B482EE0DFF86C80D8F8AF
:10399000000010F03F000400D8F8000040020CD5F1
:1039A000D8F80000C0F388101249A1FB00012200E2
:1039B0000023FEF7CFF805000BE0D8F80000C0F3B5
:1039C00088100B49A1FB000122000023FEF7C2F87A
:1039D0000500D8F80000C0F30140401C400006007C
:1039E000B5FBF6F000E00248BDE8F081083802407F
:1039F0000024F40040787D010438024010B5040032
:103A00004FF47A700D490978B0FBF1F00C49096860
:103A1000B1FBF0F0FFF780FF002801D001200CE09F
:103A2000102C09D2002221005FF0FF30FFF758FF71
:103A300004480460002000E0012010BD3A0100208D
:103A4000A8000020A400002080B50B48016851F4B4
:103A500000710160016851F480610160016851F4F6
:103A6000807101600320FFF735FF0F20FFF7C6FFCD
:103A700000F094FE002002BD003C024038B586B044
:103A8000142100226846FFF73FFD002005904448BE
:103A9000016851F004010160016811F00401059111
:103AA000059900210591016851F0800101600168CC
:103AB00011F080010591059900210591016851F0EF
:103AC00001010160016811F00101059105990021D2
:103AD0000591016851F002010160006810F00200D8
:103AE000059005982F4C00224FF400512000FFF75D
:103AF00044FE2D4D00224FF470412800FFF73DFE9B
:103B00004FF400500090012001900020029000200E
:103B1000039069462000FFF72BFD4FF440400090D2
:103B2000032001900020029069462000FFF720FD4D
:103B300048F29060009003200190002002906946B6
:103B40001A48FFF715FD40F23F4000900320019016
:103B50000020029069462800FFF70AFD4FF47040EC
:103B600000900120019000200290032003906946FC
:103B70002800FFF7FDFC802000905FF48810019082
:103B80000220029069462800FFF7F2FC0022002183
:103B90001720FFF7A5FE1720FFF7B7FE07B030BDCF
:103BA0003038024000080240000402400000024099
:103BB00080B5002000900D48016851F4800101603B
:103BC000006810F480000090009800220021392045
:103BD000FFF786FE3920FFF798FE002200214520DE
:103BE000FFF77EFE4520FFF790FE01BD3038024012
:103BF00018B587B01421002202A8FFF785FC082120
:103C000000226846FFF780FCDFF80445DFF8040572
:103C10002060002060600020A0604FF6FF70E06030
:103C200000202061002060610020A061200000F0E1
:103C3000D5FD002801D0FFF765FC07200290502039
:103C400003900A2004900020069002A9200000F0B2
:103C5000EDFF002801D0FFF755FC00200090002068
:103C600001906946200001F0C3F9002801D0FFF758
:103C700049FC08B010BD18B587B01421002202A875
:103C8000FFF742FC082100226846FFF73DFCDFF801
:103C900088445FF080402060002060600020A060C9
:103CA0005FF0FF30E060002020610020A061200074
:103CB00000F094FD002801D0FFF724FC07200290BB
:103CC000502003900A2004900020069002A92000B2
:103CD00000F0ACFF002801D0FFF714FC002000909A
:103CE000002001906946200001F082F9002801D0EF
:103CF000FFF708FC08B010BD18B587B014210022EA
:103D000002A8FFF701FC082100226846FFF7FCFB30
:103D1000DFF80844DFF8080420600020606000201D
:103D2000A0604FF6FF70E060002020610020A061DD
:103D3000200000F053FD002801D0FFF7E3FB07202F
:103D40000290502003900A2004900020069002A9BF
:103D5000200000F06BFF002801D0FFF7D3FB00200C
:103D60000090002001906946200001F041F90028F0
:103D700001D0FFF7C7FB08B010BD18B587B01421FC
:103D8000002202A8FFF7C0FB082100226846FFF7C7
:103D9000BBFBDFF89043DFF89003206000206060F9
:103DA0000020A0604FF6FF70E0600020206100203E
:103DB000A061200000F012FD002801D0FFF7A2FB57
:103DC00007200290502003900A20049000200690C3
:103DD00002A9200000F02AFF002801D0FFF792FB83
:103DE00000200090002001906946200001F000F9B9
:103DF000002801D0FFF786FB08B010BD18B589B0C8
:103E0000082100226846FFF77FFB1C21002202A840
:103E1000FFF77AFBDFF81443DFF81403206044F661
:103E20001F6060600020A060FE20E0600020206134
:103E30000020A061200000F04DFD002801D0FFF718
:103E400061FB00200090002001906946200001F0F5
:103E5000CFF8002801D0FFF755FB6020029000202A
:103E600003900020049000200690002202A9200068
:103E700000F0E4FD002801D0FFF744FB042202A972
:103E8000200000F0DBFD002801D0FFF73BFB0822FB
:103E900002A9200000F0D2FD002801D0FFF732FB7C
:103EA0000C2202A9200000F0C9FD002801D0FFF774
:103EB00029FB200000F003F90AB010BD1FB5102146
:103EC00000226846FFF720FB9A4C9B482060632045
:103ED00060600020A0604FF6FF70E060002020616D
:103EE0000020A061200000F079FC002801D0FFF73D
:103EF00009FB4FF4805000906946200000F01CFE42
:103F0000002801D0FFF7FEFA1FBD10B586B00400EF
:103F1000142100226846FFF7F7FA20687D4988429D
:103F200027D1002005908548016851F0010101600A
:103F3000006810F001000590059800200590804869
:103F4000016851F001010160006810F00100059066
:103F500005984FF48070009002200190022002909A
:103F6000002003900120049069467648FFF700FB8B
:103F700090E02068B0F1804F26D100200590724873
:103F8000016851F001010160006810F00100059026
:103F90000598002005906A48016851F00101016010
:103FA000006810F001000590059820200090022084
:103FB00001900220029000200390012004906946A5
:103FC0006048FFF7D5FA65E020685549884226D158
:103FD000002005905C48016851F002010160006812
:103FE00010F00200059005980020059054480168E3
:103FF00051F001010160006810F001000590059882
:1040000040200090022001900220029000200390A6
:104010000220049069464B48FFF7AAFA3AE020686C
:104020004149884226D1002005904748016851F057
:1040300004010160006810F004000590059800205C
:1040400005903F48016851F002010160006810F0DE
:104050000200059005984020009002200190022067
:104060000290002003900220049069463748FFF731
:104070007FFA0FE02068304988420BD1002005907C
:104080002E48016851F480310160006810F48030DE
:104090000590059806B010BD81B00168244A914290
:1040A0000BD10021009128490A6852F008020A60E9
:1040B000096811F008010091009901B0704710B52E
:1040C00086B004001421002201A8FFF71DFA206821
:1040D0001749884219D1002000901948016851F011
:1040E00001010160006810F00100009000980F20AD
:1040F00001900220029000200390012004900220F1
:10410000059001A90F48FFF733FA06B010BD000073
:10411000FC04002000000140440500208C05002024
:1041200000040040D4050020000800401C060020C8
:10413000000C00406406002000400140443802406A
:104140003038024000000240403802400004024083
:1041500080B52848284901602849416000218160D4
:104160000021C1604FF480410161002141610021C3
:1041700081610021C1610021016200F085FF0028FA
:1041800001D0FFF7BFF901BD10B586B004001421BE
:10419000002201A8FFF7B8F920681749884226D104
:1041A000002000901648016851F00201016000688B
:1041B00010F00200009000984FF44070019012201F
:1041C000029000200390032004900420059001A990
:1041D0000C48FFF7CDF9002000900B48016851F41E
:1041E00000110160006810F400100090009806B003
:1041F00010BD00005804002000540040801A060042
:1042000030380240000402404038024080B5574830
:1042100000F01BFB564800F018FB564800F015FB59
:10422000554800F012FB01BD38B5544C544D4FF4C5
:10423000805000902B0000222100524801F028FD00
:104240004FF4005000902B00042221004E4801F052
:104250001FFD4FF4804000902B00082221004B48A6
:1042600001F016FD4FF4004000902B000C222100BD
:10427000474801F00DFD31BD80B5C823454A464988
:104280004648FEF77AFF01BD4548002181610021C3
:10429000C16100214162002181620021016400218D
:1042A00041640021C1640021016500218166002173
:1042B000C16600214167002181670021C0F890108C
:1042C0000021C0F894100021C0F89C100021C0F813
:1042D000A010704738B52DED028B02F05EF8FFF7A5
:1042E00095FFFFF7A1FFFFF7C7FFFFF7CDFF002402
:1042F000FFF728FB05009FED1C8AFFF723FB001B3F
:10430000B0F57A7F04D3FFF71DFB040002F08AFAB0
:1043100024480078002807D023490878002803D0D3
:104320000020087002F06AF902F084FAFFF70AFB35
:10433000401B0A280AD3FFF705FB0500B0EE480A28
:1043400002F04EF8B0EE480A01F0BDFD02F002FAAC
:1043500002F0FBFAD1E7010089B2802902D10121E4
:10436000114A117070470000CDCC4C3DFC04002078
:10437000440500208C050020D40500201C060020E8
:1043800000040240340700205C070020AC07002036
:104390008407002008020020AC060020140800203A
:1043A00000000020B4080020B50800202DE9F843E3
:1043B0000400002C01D10120DAE12078C0075FD58C
:1043C000DFF8B003016811F00C01042909D000687E
:1043D00010F00C0008280ED1DFF89C0300684002A2
:1043E00009D5DFF898030068800349D56068002884
:1043F00046D10120BCE16068B0F5803F06D1DFF80E
:104400007C03016851F48031016018E06068B0F508
:10441000A02F0AD1DFF86403016851F48021016004
:10442000016851F48031016009E0DFF85003016850
:1044300031F480310160016831F4802101606068ED
:1044400000280ED0FFF77EFA0500DFF83003006881
:10445000800315D4FFF776FA401B6528F5D30320B7
:1044600086E1FFF76FFA0500DFF8100300688003AC
:1044700006D5FFF767FA401B6528F5D3032077E1DF
:10448000207880074CD5DFF8EC02016811F00C0FA2
:1044900008D0006810F00C00082814D1B648006855
:1044A000400210D4B5480168890704D5E1680129A4
:1044B00001D001205CE1016831F0F801226951EA84
:1044C000C20101602CE0E068002818D00120AC494E
:1044D0000860FFF737FA0500A8480168890706D485
:1044E000FFF730FA401B0328F6D3032040E10168B0
:1044F00031F0F801226951EAC201016010E00020A8
:104500009F490860FFF71EFA05009C480068800775
:1045100006D5FFF717FA401B0328F6D3032027E13F
:104520002078000724D56069002810D00120954923
:104530000860FFF707FA050093480068800717D462
:10454000FFF700FA401B0328F6D3032010E10020F8
:104550008C490860FFF7F6F905008B480068800772
:1045600006D5FFF7EFF9401B0328F6D30320FFE041
:10457000207840077CD50027DFF81082D8F80000AB
:10458000C0000FD400200090D8F8000050F08050F8
:10459000C8F80000D8F8000010F080500090009893
:1045A00001200700DFF8E891D9F80000C00513D416
:1045B000D9F8000050F48070C9F80000FFF7C2F984
:1045C0000500D9F80000C00506D4FFF7BBF9401B71
:1045D0000328F6D30320CBE0A068012805D16D485D
:1045E000016851F00101016015E0A068052809D1BA
:1045F0006848016851F004010160016851F001014F
:10460000016008E0634801684908490001600168E9
:1046100031F004010160A06800280FD0FFF792F983
:1046200005005C480068800718D4FFF78BF9401B31
:1046300041F289318842F4D3032099E0FFF782F9EF
:10464000050054480068800708D5FFF77BF9401B38
:1046500041F289318842F4D3032089E03800C0B2A6
:10466000012805D1D8F8000030F08050C8F80000CB
:10467000A06900287BD03F48006810F00C00082893
:1046800049D0A069022835D1DFF80C910020C9F883
:104690000000FFF757F90700DFF8E080D8F80000C6
:1046A000800106D5FFF74EF9C01B0328F4D3032081
:1046B0005EE0E169206A0143606A51EA8011A06A04
:1046C0004008401E51EA0041E06A51EA00612A4870
:1046D00001600120C9F80000FFF734F90500D8F89F
:1046E0000000800143D4FFF72DF9401B0328F6D3C7
:1046F00003203DE0002028490860FFF723F905006A
:104700001E480068800132D5FFF71CF9401B0328C2
:10471000F6D303202CE0A069012801D1012027E075
:10472000154800680600A06901281ED016F4800014
:10473000E169884219D116F03F00216A884214D1FC
:1047400047F6C0703040616AB0EB811F0DD116F49E
:104750004030A16A4908491EB0EB014F05D116F05F
:104760007060E16AB0EB016F01D0012000E0002031
:10477000BDE8F283083802400438024000380240A5
:1047800000004742800E47427438024040380240E1
:1047900000700040703802406000474281B0002045
:1047A00000900C48016851F480410160006810F4E9
:1047B000804000900098002000900748016851F068
:1047C00080510160006810F080500090009801B0A6
:1047D000704700BF443802404038024010B5040022
:1047E000002C01D101202FE094F83D00002805D1D4
:1047F000002084F83C002000FFF787FB022084F8AB
:104800003D00211D206800F042FA012084F8460096
:10481000012084F83E00012084F83F00012084F844
:104820004000012084F84100012084F8420001206A
:1048300084F84300012084F84400012084F84500F6
:10484000012084F83D00002010BD010091F83D00DA
:10485000012801D0012034E0022081F83D000868E1
:10486000DFF86030984217D00868B0F1804F13D05D
:104870000868DFF8543098420ED00868DFF84C30F2
:10488000984209D00868DFF84830984204D0086898
:10489000DFF8943198420DD10868806810F0070065
:1048A0000200062A0CD00868006850F001000B686E
:1048B000186005E00868006850F001000B68186097
:1048C0000020704700000140000400400008004044
:1048D000000C004010B50400002C01D101202FE095
:1048E00094F83D00002805D1002084F83C00200009
:1048F000FFF7D2FB022084F83D00211D206800F064
:10490000C6F9012084F84600012084F83E00012009
:1049100084F83F00012084F84000012084F8410021
:10492000012084F84200012084F84300012084F82B
:104930004400012084F84500012084F83D00002057
:1049400010BD70B505000C00002C02D195F83E009A
:104950000BE0042C02D195F83F0006E0082C02D1B0
:1049600095F8400001E095F84100012801D00120B0
:1049700057E0002C04D1022085F83E00C0B211E0BF
:10498000042C04D1022085F83F00C0B20AE0082CB4
:1049900004D1022085F84000C0B203E0022085F86F
:1049A0004100C0B201222100286800F00FFBDFF8AF
:1049B0007C002968814205D12968496C51F4004185
:1049C0002A6851642968814216D02868B0F1804F66
:1049D00012D02868DFF8581088420DD02868DFF818
:1049E0005410884208D02868DFF84C10884203D061
:1049F00028680D4988420DD12868806810F00700AA
:104A00000600062E0CD02868006850F001002968C6
:104A1000086005E02868006850F001002968086017
:104A2000002070BD00000000004001400000014077
:104A30000004004000080040000C0040F8B50400ED
:104A40000D001600002794F83C00012801D1022037
:104A500071E0012084F83C003000002806D00428D2
:104A60001BD0082831D00C2846D05DE029002068F2
:104A700000F055F92068806950F0080021688861CD
:104A80002068806930F004002168886120688169AD
:104A9000286901432068816148E02900206800F00E
:104AA0006BF92068806950F4006021688861206893
:104AB000806930F480602168886120688069296994
:104AC00050EA01202168886130E02900206800F068
:104AD00085F92068C06950F008002168C861206825
:104AE000C06930F004002168C8612068C169286984
:104AF00001432068C16119E02900206800F09EF997
:104B00002068C06950F400602168C8612068C069ED
:104B100030F480602168C8612068C069296950EA62
:104B200001202168C86101E001200700002084F80D
:104B30003C003800C0B2F2BDF8B504000D000026FC
:104B400094F83C00012801D102206EE0012084F895
:104B50003C00022084F83D002068876837F0770722
:104B600037F47F4720688760286800284ED01028D7
:104B70004CD020284AD0302848D040283CD050285B
:104B800026D060282ED0702807D0B0F5805F03D0E3
:104B9000B0F5005F0FD03EE03FE0EB686A68A968BF
:104BA000206800F008FA2068806850F0770007005D
:104BB0002068876031E0EB686A68A968206800F0C7
:104BC000FAF92068806850F480402168886024E009
:104BD000EA686968206800F0C1F95021206800F097
:104BE000E2F91AE0EA686968206800F0C9F9602112
:104BF000206800F0D8F910E0EA686968206800F0E1
:104C0000ADF94021206800F0CEF906E0296820685F
:104C100000F0C9F901E001200600012084F83D0000
:104C2000002084F83C003000C0B2F2BD38B504006A
:104C30000D0094F83C00012801D1022026E001205B
:104C400084F83C00022084F83D002900200000F098
:104C500019F9002807D0012084F83D00002084F8CD
:104C60003C00012012E02068C06830F0400021685C
:104C7000C8602068C06830F480402168C8600120A6
:104C800084F83D00002084F83C00002032BD10B4C0
:104C90000368DFF8AC42A0420BD0B0F1804F08D0DF
:104CA000A84A904205D0A84A904202D0A74A904212
:104CB00004D133F070031A004B681343A04214D0A0
:104CC000B0F1804F11D09F4A90420ED09E4A904240
:104CD0000BD09E4A904208D09D4A904205D09D4AF2
:104CE000904202D09C4A904204D133F440731A009F
:104CF000CB68134333F080034A6913438A68C26266
:104D00000A688262A04201D10A690263026852F015
:104D10000402026001224261036010BC704770B45B
:104D2000046A026A5208520002624568836933F0DD
:104D300070039B089B000A68134334F002048A68DE
:104D400014437F4EB04205D134F00804CA681443BE
:104D500034F00404B04208D135F4807535F40075A0
:104D60004A6915432A008D691543456083614A6885
:104D70004263046270BC704770B4036A026A32F026
:104D8000100202624468826932F4E04232F44072F6
:104D90000D6852EA052233F020038D6853EA0513AB
:104DA000674DA84206D133F08003CE6853EA06135C
:104DB00033F04003A84209D134F4806434F4006431
:104DC0004D6954EA85048D6954EA85044460826122
:104DD0004D688563036270BC7047000070B4046A5C
:104DE000026A32F4807202624568C36933F070036C
:104DF0009B089B000A68134334F400748A6854EAE1
:104E000002244F4A904206D134F40064CE6854EA3A
:104E1000062434F48064904209D135F4805535F489
:104E200000554A6955EA02158A6955EA0215456036
:104E3000C3614A68C263046270BC704730B4036ADD
:104E4000026A32F4805202624468C26932F4E0427B
:104E500032F440720D6852EA052233F400538D6833
:104E600053EA0533364DA84204D134F480444D69E9
:104E700054EA85144460C2614D680564036230BC25
:104E8000704700002DE9F84304000D00002620685B
:104E9000D0F8089039F07009686850EA09095FEAAB
:104EA000D9095FEAC909286850EA09092068C0F8E9
:104EB0000890686800283CD010283AD0202838D0C4
:104EC000302836D040280CD0502826D060282AD050
:104ED00070282FD12B69AA68E968206800F06BF868
:104EE0002AE02868052801D1012027E02068006A0F
:104EF00080462068006A40084000216808622068F7
:104F0000806930F0F000296950EA0110070020683C
:104F100087612068C0F820800EE02A69A9682068AF
:104F200000F01CF808E02A69A968206800F028F859
:104F300002E001E0012006003000C0B2BDE8F283CB
:104F4000000001400004004000080040000C004048
:104F500000400140004401400048014010B4046A90
:104F6000036A5B085B000362836933F0F00353EA72
:104F7000021334F00A040C438361046210BC7047CE
:104F800010B4046A036A33F010030362836933F4D4
:104F9000704353EA023334F0A00454EA01148361ED
:104FA000046210BC7047826832F070020A4352F00B
:104FB00007028260704710B4846834F47F440C4365
:104FC000144354EA0324846010BC704730B40124B5
:104FD00011F01F039C40036AA3430362036A11F0AC
:104FE0001F0512FA05F52B43036230BC7047000021
:104FF00030B4020092F83C00012801D1022035E0D3
:10500000012082F83C00022082F83D0010684368CD
:105010001068846833F070030868034310684360C5
:105020001068144DA84213D01068B0F1804F0FD013
:105030001068114DA8420BD01068104DA84207D03F
:1050400010680F4DA84203D010680E4DA84206D13B
:1050500034F0800420004C68044310688460012010
:1050600082F83D00002082F83C00002030BC7047F0
:105070000000000000000140000400400008004063
:10508000000C00400040014070B50400002C01D12C
:105090000120E1E094F83D00002805D1002084F8CB
:1050A0003C002000FFF770F8242084F83D002068C1
:1050B000006840084000216808602068006850F4DB
:1050C0000040216808602068006830F400402168D2
:1050D0000860FEF780F90200DFF880016168814214
:1050E00008D2DFF87C118A4201D2012100E00021C0
:1050F000C9B207E0DFF86C118A4201D2012100E059
:105100000021C9B2012901D10120A5E0DFF8581121
:10511000B2FBF1F123685B689B099B010B43256897
:105120006B6023681B6A6568854201D24D1C08E0EC
:105130004FF4967505FB01F54FF47A76B5FBF6F55D
:105140006D1C9B099B012B4325682B622368DB693F
:105150006568854214D2501E65686D00B0FBF5F09D
:10516000401C0005000D042801D204253EE0501E1D
:1051700065686D00B0FBF5F56D1C2D052D0D35E056
:10518000A068002809D1551E666803204643B5FB78
:10519000F6F0401C0005000D0AE0551E6668192057
:1051A0004643B5FBF6F0401C0005000D50F480406E
:1051B000000501D1012519E0A068002809D1551E7C
:1051C000666803204643B5FBF6F56D1C2D052D0DD5
:1051D0000AE0551E666819204643B5FBF6F56D1CBE
:1051E0002D052D0D55F4804555F40045DFF87C0064
:1051F00003402B432068C3612068036833F0C00379
:10520000E0690343206A03432068036020688368E1
:10521000DFF85C00034020690343E0680343206833
:1052200083602068C3681B0A1B02A069034360698E
:1052300003432068C3602068006850F001002368C1
:10524000186000202064202084F83D0000202063A6
:10525000002084F83E00002070BD0000A1860100FF
:1052600080841E0000093D0040420F000030FFFF17
:10527000007CFFFF2DE9FE4F05000E001700984649
:10528000DDF830900D9CDDF838A0FEF75BFB83461F
:1052900095F83D00202840F0A180CDF800B01923FA
:1052A0000122DFF85814280000F05AFB002801D032
:1052B000022094E095F83C00012801D102208EE004
:1052C000012085F83C0028680068C00705D42868DC
:1052D000006850F00100296808602868006830F410
:1052E000006029680860212085F83D00402085F88D
:1052F0003E0000202864C5F824906C85688D2885C0
:10530000DFF8F403E862CDF804B0CDF800A043461E
:105310009BB23A0092B2310089B2280000F0F2F953
:10532000002801D001205AE0288D002833D05A46A9
:105330005146280000F0F0FB00280AD0286C042811
:1053400005D12868006850F40070296808600120C1
:1053500045E0686A007829680861686A401C6862EC
:10536000288D401E2885688D401E68852868406904
:105370004007D9D5288D0028D6D0686A00782968DA
:105380000861686A401C6862288D401E2885688D07
:10539000401E6885C8E75A465146280000F0ECFBDD
:1053A00000280AD0286C042805D12868006850F429
:1053B000007029680860012011E02868006850F436
:1053C000007029680860202085F83D00002085F8DD
:1053D0003E00002085F83C00002000E00220BDE8EF
:1053E000FE8F00002DE9F24F82B0050016001F006D
:1053F000DDF830800D9CDDF83890FEF7A3FA824688
:1054000095F83D00202840F07381CDF800A01923C5
:105410000122DFF8E812280000F0A2FA002801D0EB
:10542000022066E195F83C00012801D1022060E1EC
:10543000012085F83C0028680068C00705D428686A
:10544000006850F00100296808602868006830F49E
:10545000006029680860222085F83D00402085F81A
:105460003E0000202864C5F824806C85688D28855E
:10547000DFF88402E862CDF804A0CDF800903B008C
:105480009BB2320092B2BDF80810280000F0B0F9CB
:10549000002801D001202CE1288D00280FD1002008
:1054A0000090286840690090286880690090009802
:1054B0002868006850F40070296808603AE0288D78
:1054C000012815D12868006830F4806029680860D8
:1054D000002000902868406900902868806900904A
:1054E00000982868006850F400702968086021E07E
:1054F000288D022815D12868006830F4806029685A
:1055000008602868006850F400602968086000207E
:105510000090286840690090286880690090009891
:1055200008E00020009028684069009028688069A1
:1055300000900098288D002800F0CF80288D042846
:1055400080F09980288D012816D1524649462800BE
:1055500000F044FB002801D00120CAE0286800695F
:10556000696A0870686A401C6862288D401E288538
:10557000688D401E6885DDE7288D02282DD1CDF885
:1055800000A04B460022DFF87811280000F0E8F96F
:10559000002801D00120ACE02868006850F40070B9
:1055A0002968086028680069696A0870686A401C90
:1055B0006862288D401E2885688D401E6885286891
:1055C0000069696A0870686A401C6862288D401E1C
:1055D0002885688D401E6885ACE7DFF824B1CDF8DA
:1055E00000A04B4600225946280000F0B9F90028D7
:1055F00001D001207DE02868006830F480602968CF
:10560000086028680069696A0870686A401C6862F6
:10561000288D401E2885688D401E6885CDF800A025
:105620004B4600225946280000F09AF9002801D084
:1056300001205EE02868006850F400702968086066
:1056400028680069696A0870686A401C6862288D69
:10565000401E2885688D401E688528680069696A33
:105660000870686A401C6862288D401E2885688D15
:10567000401E68855EE752464946280000F0AEFAB3
:10568000002801D0012034E028680069696A0870A8
:10569000686A401C6862288D401E2885688D401EFF
:1056A00068852868406940077FF544AF288D032846
:1056B00005D12868006830F480602968086028688F
:1056C0000069696A0870686A401C6862288D401E1B
:1056D0002885688D401E68852CE7202085F83D00D0
:1056E000002085F83E00002085F83C00002000E006
:1056F0000220BDE8FE8F00000000FFFF0200100046
:10570000040001002DE9F84304000D0016001F00FD
:10571000DDF82080DDF824902068006850F4807067
:1057200021680860CDF80090434600225FF0011127
:10573000200000F015F9002808D020680068C00596
:1057400002D54FF40070206403204FE015F0FE00F6
:10575000216808614B464246DFF87C14200000F0C7
:1057600062F9002801D0012040E00020009020686C
:105770004069009020688069009000984A46414640
:10578000200000F0C9F900280AD0206C042805D1B7
:105790002068006850F4007021680860012025E04E
:1057A000380080B2012804D13000C0B221680861FD
:1057B0001BE0300080B2000AC0B2216808614A468E
:1057C0004146200000F0A8F900280AD0206C0428E7
:1057D00005D12068006850F400702168086001203D
:1057E00004E03000C0B2216808610020BDE8F28307
:1057F0002DE9FC4704000D0016001F00DDF828808D
:10580000DDF82C902068006850F480602168086002
:105810002068006850F4807021680860CDF800901E
:10582000434600225FF00111200000F099F80028A3
:1058300008D020680068C00502D54FF400702064CD
:1058400003208BE015F0FE0021680861DFF888A3D3
:105850004B4642465146200000F0E5F8002801D0B2
:1058600001207BE0002000902068406900902068C3
:105870008069009000984A464146200000F04CF9AB
:1058800000280AD0206C042805D12068006850F454
:10589000007021680860012060E0380080B20128B3
:1058A00004D13000C0B2216808611BE0300080B232
:1058B000000AC0B2216808614A464146200000F053
:1058C0002BF900280AD0206C042805D12068006834
:1058D00050F400702168086001203FE03000C0B241
:1058E000216808614A464146200000F015F9002869
:1058F0000AD0206C042805D12068006850F400709C
:1059000021680860012029E02068006850F4807058
:1059100021680860CDF80090434600225FF0011135
:10592000200000F01DF8002808D020680068C0059D
:1059300002D54FF40070206403200FE055F0010001
:10594000C0B2216808614B4642465146200000F033
:105950006AF8002801D0012000E00020BDE8F687A9
:105960002DE9F04105000E0017001C00DDF818803D
:105970003000000CC0B201280AD1286840693040CC
:1059800080B2B1B2884201D101200BE0002009E0D1
:1059900028688069304080B2B1B2884201D10120CC
:1059A00000E000203900C9B2884239D114F1010F5A
:1059B000DED0FDF7C7FFB0EB0800844201D3002C16
:1059C000D6D13000000CC0B201280AD12868406945
:1059D000304080B2B1B2884201D101200BE00020FA
:1059E00009E028688069304080B2B1B2884201D1B4
:1059F000012000E000203900C9B28842B8D100205F
:105A00002863202085F83D00002085F83E00286CA2
:105A100050F020002864002085F83C00012000E0C0
:105A20000020BDE8F081F8B505000E0014001F004D
:105A30003000000CC0B201280AD12868406930400B
:105A400080B2B1B2884201D101200BE0002009E010
:105A500028688069304080B2B1B2884201D101200B
:105A600000E00020002855D12868406940051AD57B
:105A70002868006850F40070296808607FF480602E
:105A80002968486100202863202085F83D00002017
:105A900085F83E00286C50F004002864002085F84A
:105AA0003C00012037E014F1010FC1D0FDF74AFF9F
:105AB000C01B844201D3002CBAD13000000CC0B20C
:105AC00001280AD128684069304080B2B1B28842CA
:105AD00001D101200BE0002009E0286880693040F6
