:020000040800F2
:10000000600C0020919F0008959D0008979D0008B6
:10001000999D00089B9D00089D9D00080000000020
:100020000000000000000000000000009F9D00088C
:10003000A19D000800000000A39D0008A59D0008E8
:10004000E19F0008E59F0008E99F0008ED9F000878
:10005000F19F0008F59F0008F99F0008FD9F000828
:1000600001A0000805A0000809A000080DA00008D4
:1000700011A0000815A0000819A000081DA0000884
:1000800021A0000825A0000829A000080000000009
:100090000000000000000000000000002DA000088B
:1000A00031A0000835A0000839A000083DA00008D4
:1000B00041A0000845A0000849A000084DA0000884
:1000C00051A0000855A0000859A000085DA0000834
:1000D00061A0000865A0000869A0000800000000F9
:1000E0006DA0000871A0000875A0000800000000C5
:1000F00000000000000000000000000079A00008DF
:10010000000000007DA0000881A0000885A0000874
:1001100000000000000000000000000000000000DF
:1001200089A00008AD9D00088DA0000891A00008DE
:1001300095A0000800000000000000000000000082
:1001400000000000000000000000000099A000086E
:100150009DA00008B79D0008A1A00008A5A0000868
:10016000A9A00008ADA000080000000000000000E9
:10017000000000000000000000000000000000007F
:1001800000000000B1A00008000000000000000016
:10019000B5A00008B9A0000840F0200070472DE984
:1001A000F14FB0B0924604910DF142013A9A2B9171
:1001B00099464A7000200AE01AF8011B0498309A08
:1001C00090470028049000F044860D98401C0D9044
:1001D0009AF8000058B12528EED100200021002215
:1001E0000790089109920A910B920C9104E00D98E6
:1001F00000F031BE41F001011AF8010F2028F9D0BA
:1002000023280CD02B2804D02D2805D0302809D045
:100210000BE041F00201EFE741F00401ECE741F0AF
:100220000801E9E741F01001E6E72A280FD1D9F8E3
:10023000002052F8040BC9F8002000280F9003D5C5
:1002400040420F9041F004010AF1010A14E00F92BC
:10025000DFF8082C0AE00F9B934205DA03EB8304D6
:1002600000EB440030380F900AF1010A9AF80000C0
:10027000A0F130030A2BEED39AF800202E2A03D0E7
:100280004FF0FF300E9029E01AF8010F2A2809D10B
:10029000D9F8002052F8040BC9F800200E900AF19A
:1002A000010A1BE02D280CBF0AF1010A00200022E0
:1002B0000E92DFF8A84B0BE040B90E9BA34205DA83
:1002C00003EB830502EB4502303A0E920AF1010A74
:1002D0009AF80020A2F130030A2BEDD3ADF84010BC
:1002E0000FF67C309AF8001000F0FCFE08B11AF806
:1002F000010B8DF842009DF84200682805D19AF85C
:10030000001068290CD1622006E06C2804BF9AF81E
:1003100000106C2904D171208DF842000AF1010A05
:1003200012AA06921AF801BBBBF125002CD01C388A
:1003300000F09781001F022840F29381133800F0EB
:10034000BA84093800F08D81801E00F04F85401E70
:1003500000F0FC84401E022840F28381001F00F060
:10036000F584401F00F0F280401E00F0A484401E7F
:1003700000F0DA80C01E0ED0801E00F09C84C01EEB
:1003800000F0998400F03DBD0122252107928DF8EF
:10039000481000F042BDD9F8000050F8044BC9F8ED
:1003A0000000002C059440F0AB802B994878002881
:1003B00000F0A1804FF0FF340FF6AC2000F0ACFE4F
:1003C000241A40F0468500F028BD01236A4602A9A0
:1003D000304600F00DFE002840F03B85641EF4D14D
:1003E0003096079C12AF74B1309E17F8011B049829
:1003F000B0470028049000F02C850D98401C641E26
:100400000D90F2D130960A9C3021002C8DF800100E
:100410000CDD309E01236A4602A9304600F0E8FD5B
:10042000002840F01685641EF4D13096059F089C84
:1004300074B1309E17F8011B0498B047002804904F
:1004400000F007850D98401C641E0D90F2D1309687
:100450000B9C3021002C8DF800100CDD309E012308
:100460006A4602A9304600F0C3FD002840F0F1843E
:10047000641EF4D1309605980899099C471874B108
:10048000309E17F8011B0498B0470028049000F034
:10049000E0840D98401C641E0D90F2D130960C9CA7
:1004A0003021002C8DF800100CDD309E01236A46AF
:1004B00002A9304600F09CFD002840F0CA84641E6A
:1004C000F4D130969DF8400041077FF581AE2020A1
:1004D000002D8DF800007FF77BAE309C01236A462B
:1004E00002A9204600F084FD002840F0B2846D1E71
:1004F000F4D130946CE60FF65830059000F08DBCC6
:100500000E9D002D04D5204600F026FE044608E08E
:100510002A460021204600F047FE002814BF041B95
:100520002C46089400F079BCD9F8001051F8040B5F
:10053000C9F8001020F00002002121F0FF33CDE9BE
:10054000022312AC0594782100F04CBC2B9948781A
:1005500020B14FF0FF340FF6C8202FE79DF842007E
:10056000622860D0682817D06A283FD06C2806D04F
:10057000712847D074282CD07A281DD062E0D9F891
:10058000001051F8040BC9F80010002866D14FF094
:10059000FF340FF6A42011E7D9F8001051F8040B2E
:1005A000C9F8001020B94FF0FF340FF68C2005E792
:1005B0000D99018000F031BCD9F8001051F8040BFE
:1005C000C9F80010002849D14FF0FF340FF6682019
:1005D000F4E6D9F8001051F8040BC9F8001000280F
:1005E0003CD14FF0FF340FF65020E7E6D9F8001069
:1005F00051F8040BC9F8001080B94FF0FF340FF622
:100600003820DBE6D9F8001051F8040BC9F80010C7
:1006100020B94FF0FF340FF62020CFE60D9AD31704
:10062000C0E90023F9E3D9F8001051F8040BC9F828
:10063000001020B94FF0FF340FF6FC10BEE60D9904
:100640000170EAE3D9F8001051F8040BC9F8001062
:1006500020B94FF0FF340FF6E010AFE60D990160BE
:10066000DBE39DF842004C2807BFD9F80010CA1DF3
:10067000D9F80000C21D22F00702C9F80020D2E913
:1006800000010832C9F80020CDE90201C80F02D0EC
:1006900007982D210AE0BDF84000810702D5079890
:1006A0002B2103E0C00705D50798202112AA115479
:1006B000401C079012A807994BF0200300EB010C97
:1006C000DDE90201CDE92C01612BCDF814C021AC8C
:1006D0000BD00E98002848BF062105D404BF4BF06C
:1006E0002000672801D101210E91DDE902014F00B0
:1006F00047EAD0777E15FF174FF0FF32974208BFC9
:10070000964210D1090341EA10510003002908BFA5
:10071000002808D0ABF1610503211A2D089118D3E8
:100720000FF6341110E0DDE902014A00521512F112
:10073000010F11D108030FD1ABF1610503211A2D6F
:1007400008911FD30FF618110322604600F058FDE0
:1007500063E30FF60011F7E7DDE902016A4600F0F6
:10076000A3FDCDE902014BF02000612811D10598CD
:1007700030220270811C0591BBF1610F0CBF782102
:10078000582102E00FF6D401DEE741700798801C83
:100790000790DDE9020120F0000231F0004308BFBC
:1007A000002A02D10026002542E14BF02008B8F1D2
:1007B000610F40F092800E99002947BF21200190DF
:1007C000491C0191019FDDE92C017F1C00220023BF
:1007D000DDE9024500F0A0FD38BF85F00045009836
:1007E0008DF88420001F002F00900DF1850632DD6A
:1007F000204629460022002300F0A8FD2BD21C220F
:1008000000F0BEFD04460D4600F058FEFF1F002F0D
:10081000804609DD00F06EFE02460B462046294662
:1008200000F038FF04460D46F01D0721B8F1000F17
:100830000CDD491E5EBF08F00F0200F8012D4FEAE3
:100840002818F3D502E0002200F8012D491EFAD540
:10085000C61D002FCCDC0DF18500361A01980DF174
:1008600085048642D8BF304600282FD4B04206DA2D
:100870000DF185010A5C082AA8BF0F2100DA0021CA
:10088000024621AB9B1800E0401E13F80159521E8E
:100890008D42F9D00F2904D10DF185018B5C5B1CD1
:1008A0008B54002A04D50099091D21AC401C0091ED
:1008B000411E0BD4621813783033DDB23A2DA4BF39
:1008C0005B443A3B491E02F80139F4D50E9A002ADE
:1008D00040F1AC80411E0E91A8E00099DFF800279E
:1008E00047F29750414391FBF2F20092DDE92C452B
:1008F000C2F10702002A25F0004504DD2046294602
:1009000000F04AFB0BE052420020DFF8D81600F05E
:1009100043FB02460B462046294600F02DFF0446C5
:100920000D46B8F1660F06BF009F0A3706270E98DE
:100930003F18142FC8BF142730208DF884000DF104
:100940008506002F34DD2046294601F039F801469E
:100950000A4606F1080304200A26B2FBF6F606EB67
:10096000860EA2EB4E02303203F8012C0A22B6FBAF
:10097000F2F202EB820EA6EB4E063036401E03F872
:10098000026DE9D1083F002F03F10806D9DD0846C2
:1009900001F028F802460B462046294600F07AFE70
:1009A0000022DFF8443601F02BF804460D46CAE772
:1009B0000DF18500361A0DF1850404E00098401E03
:1009C000761E0090641C20783028F7D0B8F1660FAE
:1009D00002D10098401C04E0B8F1650F0CBF012063
:1009E00000200E9940188642B8BF701E00281DD402
:1009F000B04204DA215C3429C8BF392100DC30213F
:100A00000246631E9D1800E0401E15F80169521E43
:100A10008E42F9D0392902D1A15C491CA154002A87
:100A200004D50099491C1C46401C00910646009DB7
:100A300001F0DCF8406A0778DDF8388030B2002831
:100A400002DC01260FF21C644BF02000662808BF70
:100A50006D1C16D0672845D128B210F1040F47DB72
:100A6000404545DA9DF840006D1C010703D430B2C3
:100A70004045D8BF804628B2B8EB000848BF4FF0C9
:100A800000080FFA85FBBBF1000F00F3B380089854
:100A9000411C0891302205990A54B8F1000F03DC7B
:100AA0009DF84000010704D50898411C089105995C
:100AB0000F5418EB0B0FB8BFC8F100052DB26842F8
:100AC000454432B20B909542B8BF2E46059B08981C
:100AD00036B2099632462146181800F091FBAD1B3C
:100AE0000C95D1E0BBF1610F17D14FF0700B19E0FD
:100AF00030B2404504DA9DF840100A0758BF8046DE
:100B0000B8F1010848BF4FF00008BBF1670F14BFF0
:100B10004FF0450B4FF0650B04E0BBF1410F08BFF0
:100B20004FF0500B0898411C0891B8F1000F05993F
:100B300014F8012B0A5403DC9DF8400001071AD574
:100B40000898411C0891B8F1000F05990F5412DD67
:100B5000761E30B28045B8BF46460598089B32B233
:100B60002146C01800F04CFB089836B230180890A7
:100B7000A8EB06000B9005980899411828B20028A8
:100B800081F800B003D42B204870891C04E02D228A
:100B90004A700546891C6D4200202CAA0AE02B46AB
:100BA0000A2593FBF5F505EB8504A3EB440302F856
:100BB000013B401C2DB2002DF1DC012806DC4BF07E
:100BC0002002652A04BF302201F8012B00282CAA3C
:100BD00008D1302001F8010B06E0401E135C3033D1
:100BE00001F8013B0028F8DC059A08981018091A4A
:100BF000099149E030B229B288421CDA0598089B75
:100C000032B22146C01800F0FBFA089936B27118CA
:100C10000891ABEB0600B8F1000F0B9003DC9DF8D8
:100C20004000020704D5059847540999491C0991C9
:100C3000CDF8308028E00598089B2AB22146C018DC
:100C400000F0DEFA0898761B5844B8F1000F0890BF
:100C500003DC9DF840100A0703D5411C0891059953
:100C60000F5430B28045B8BF46460598089B32B253
:100C700004EB0B01C01800F0C3FA089836B2301824
:100C80000890A8EB06000B909DF8400000F01400BF
:100C9000102840F0C280079A08980B99821809988A
:100CA0008A1882180C980F998018884280F2B580B3
:100CB000081A0A90B1E09DF84200622808D068281E
:100CC0000ED06A2814D06C281FD0712810D01CE0D8
:100CD000D9F8001051F8040BC9F80010C0B21AE09E
:100CE000D9F8001051F8040BC9F8001080B212E0D6
:100CF000D9F80000C21D22F00702C9F80020D2E98D
:100D000000010832C9F8002006E0D9F8001051F8B7
:100D1000040BC9F800100021CDE902019DF8400044
:100D200002075AD5DDE90201002908BF002854D086
:100D30004BF02002782A50D1079812A930230B5487
:100D4000401C421C079201F800B046E09DF84200AA
:100D5000622808D068280ED06A2814D06C281FD0CA
:100D6000712810D01CE0D9F8001051F8040BC9F814
:100D7000001040B21AE0D9F8001051F8040BC9F87D
:100D8000001000B212E0D9F80000C21D22F00702E4
:100D9000C9F80020D2E900010832C9F8002006E0B5
:100DA000D9F8001051F8040BC9F80010C117CDE9AB
:100DB0000201002902D507982D210AE0BDF8400064
:100DC000810702D507982B2103E0C00705D50798B6
:100DD000202112AA1154401C079012A8079941180B
:100DE0000591594602A800F04DF816E00120079041
:100DF000D9F8001051F8040BC9F800108DF848001C
:100E00000BE001202521BBF1000F07908DF8481061
:100E100003D0022107918DF849B00F9D07980A99D8
:100E20002D1A08986D1A0B992D1A09986D1A0C999C
:100E30002D1A9DF840006D1A41073FF5D2AA2020D7
:100E4000002D8DF800007FF7CCAA309E2C46FFF7CE
:100E5000BCBA4FF0FF3031B0BDE8F08FCBCCCC0C3A
:100E6000686A6C747A4C00007072696E74665F73A5
:100E70003A2062616420257320617267756D656E2A
:100E8000740000002DE9FC4D06468846376940464F
:100E90006F2808BF082405D0FFF77EF9782814BF13
:100EA0000A241024D6E900013C2582468B46B8F17D
:100EB000640F18BFB8F1690F05D1002903D5DAF125
:100EC000000A6BEB4B0BBBF1000F08BFBAF1000F30
:100ED0000CD1306B50B9082C3AD196F83800010784
:100EE00036D530223B2587F83B2031E08DF8008055
:100EF000504659462246002300F07EFE3032D0B2E2
:100F00006D1E3A2801950EDA7A555046594622460A
:100F1000002300F071FE82465FEA010B08BFBAF1C0
:100F2000000F05D108E09DF800001218513AEBE7D8
:100F3000F06879198842DBD3082C09D196F838007B
:100F4000010705D5785D302802D06D1E3020785518
:100F5000C5F13C02306BB26179198242F16008DA66
:100F6000318F821A4FF6EF70014031873262BDE84F
:100F7000F38D00280ED596F8380000F014001028E4
:100F800008D1736B7069316A1B1A5B1A9B1A002BAC
:100F9000C8BF3362BDE8F38D2DE9D04306460F4646
:100FA00014464FF00008DFF8449012E0E00707D540
:100FB00042464B463046394600F022FD06460F4673
:100FC0004046494642464B4600F01AFD64108046B2
:100FD0008946002CEAD130463946BDE8D08300006E
:100FE000A08601000000F03F84D797410000244014
:100FF000F8B505460E4617461C4600205CB117F8AA
:10100000011BB068A847B06030B1F06A401CF062C4
:101010000020641EF3D1F2BD4FF0FF30F2BD00009E
:101020007072696E74665F733A20256E206469730E
:10103000616C6C6F776564007072696E74663A20DB
:1010400062616420256E20617267756D656E740043
:10105000000000006E616E004E414E00696E660039
:10106000494E46003000F0B40246106895681318E7
:10107000506803EB5004C00748BF4D44A3422DD035
:1010800013F8016B16F0030004BF13F8010BC01C2A
:1010900031090F2907D113F8011B0F3103E013F8B1
:1010A000017B05F8017B401EF9D10029E6D013F839
:1010B000010BC6F38106032E08BF13F8016B00EB8A
:1010C0000620404228180026B71E8F421EBF10F887
:1010D000017B05F8017B761CF6D1CFE7F0BC02F16D
:1010E0000C007047C9B202788A421AB11CBF10F8CE
:1010F000012FF9E718BF0020704703681AB95A1E7C
:10110000026008467047197811B94FF0FF307047F8
:10111000591C01601878704780B500B906A00549D0
:101120000B681BB122220021984701E000F07CFEF1
:10113000222002BD58080020636F6E7374726169CB
:101140006E742068616E646C65723A20626164201E
:101150006D6573736167650000F10103810704D059
:1011600010F8011B820781B1FAD10268A2F10131A6
:10117000914311F0803104BF50F8042FF6E709BA0B
:10118000B1FA81F100EBD100401CC01A70478268AF
:10119000521C8260426832B10268531C03601170B5
:1011A0004168491E41607047C9B2830706D0521E8C
:1011B00022D310F8013B9942F7D11FE0083A13D32C
:1011C00002F1040241EA012141EA014150F8043BE5
:1011D000121F21BF4B40A3F1013C2CEA030C1CF071
:1011E000803FF3D0C9B2001F0832521E24BF10F84E
:1011F000013B91EA030FF8D818BF0120401E704749
:1012000062B38B0708D0521E11F8013B00F8013B76
:1012100000F024808B07F6D1830740F0208000BFC8
:10122000103A07D330B4B1E83810103AA0E83810BB
:10123000F9D230BC530724BFB1E80810A0E8081069
:1012400044BF51F8043B40F8043BD20724BF31F8B7
:10125000022B20F8022B44BF0B7803707047121F3B
:1012600017D35B0009D151F8043B20F8023B1B0C5B
:10127000121F20F8023BF6D20BE051F8043B00F8B5
:10128000013B1B0A20F8023B1B0C121F00F8013B1C
:10129000F3D238BF121D521E24BF11F8013B00F8D3
:1012A000013BF8D870472E0010B5144600F002F844
:1012B000226010BDC1F30A5343B14A0012F5001F6A
:1012C00028D2A3F2FE32A1EB0251704750EA410C42
:1012D00020D001F0004C31EA0C01B1FA81F204BFD8
:1012E000B0FA80F3D2180B3AB2F120032CBF00FA07
:1012F00003F1914041EA0C013EBFC2F1200C20FAFB
:101300000CF319439040524240F2FD33D21A01EBE4
:10131000035170470022704741EA030C50EA4C0C1D
:1013200052EA0C0C4FF4001C09D307D01CEB410F00
:101330009CBF1CEB430F8B4208BF824270471CEBE3
:10134000430FFBD8994208BF9042704741EA030C13
:1013500050EA4C0C52EA0C0C4FF4001C09D307D095
:101360001CEB410F9CBF1CEB430F994208BF9042FE
:1013700070471CEB410FFBD88B4208BF824270477D
:10138000124254D440F2FF7C1CEA11530FD0634543
:1013900031D09B1863453CBF01EB0251704701F00F
:1013A000004141EA0C510020AFF30080704750EA41
:1013B000410320D001F0004C91EA0C011CD0B1FA9D
:1013C00081F30B3B9A420DD9D21A994051EA0C0194
:1013D000C3F1200C20FA0CFC61449840531C40F2ED
:1013E000FF7CD7E7914041EA0C01C2F1200C20FAC2
:1013F0000CF3194390407047B0FA80F31533202B5B
:10140000E0D3202AEED3203A203B9A4209D9D21ABF
:1014100000FA03F141EA0C010020531C40F2FF7C6A
:10142000B8E700FA02F141EA0C010020704752428D
:1014300040F2FF7C1CEA11530DD06345DBD0B2EBC8
:10144000030C3CBFA1EB025170470CF1010221EAF1
:10145000035141F4801150EA410CCCD001F0004C12
:10146000352A27DC30B481EA0C01B2F1200309DA15
:10147000C2F12003044601FA03F5D0402843D140CD
:101480009C400CE0C3F12002450020FA03F418BF91
:1014900044F0010421FA03F091400C43002174F15F
:1014A000004550F1000051EB0C01244230BC7FF4A8
:1014B0007BAF70476146002076E74300C1F30A53D3
:1014C00040F21E42D31A0CDDCA0283F3070342EA3C
:1014D000505242F00042DA4002EBE17282EAE170DF
:1014E00070476FEAE17203F2E13008B182F0004028
:1014F0007047000010F0004160B148BF4042B0FAB0
:1015000080F29040D21CC2F5846241EA025202EBA2
:10151000D02140057047000070B491EA030F4FF0EE
:10152000004540F1BF806B40841A71EB030604D282
:101530006E40001BB141121973414FF4001C1CEBAB
:10154000410F34BF7CEB430683E00C0DA4EB135634
:10155000362E00F37C80012E45EAC32341DC43EAAA
:10156000525312BFD20292025B08240545EAC12100
:1015700041EA5051D2EBC020994125D407D1B0FAAD
:1015800080F610FA06F162D00020203608E0B1FAA9
:1015900081F6B140C6F1200220FA02F21143B040B8
:1015A0004FEAF474B4EB465434F001064FEA740485
:1015B0000AD8D6F50016760D04F00044F04061FA22
:1015C00006F25040F1404840C00A40EA415021F044
:1015D000004128BF5FEA500550F1000044EBD121E3
:1015E00035E0DB0A45EAC121C90AB6F120050EDD66
:1015F00042EA0242120CC5F1200603FA06F6EB405D
:1016000042EA06056D42984161F100010DE062FA7F
:1016100006F5F240554063FA06FC82EA0C02F340FC
:101620005A406D42904161EB030111F4801F05D1D6
:10163000641E620502D06D004041494121F48011D1
:10164000430875F1004350F1000041EB045170BCB8
:1016500070471CEB410F15D223F0004352EA4306BA
:101660000BD04FEA4C0CBCEB410F04D80C0D661E9E
:10167000342EB7DDEBE7801A994150EA410608BFE6
:101680000021E4E708BF1CEB430F28BF6FF0000107
:10169000DDE7000070B491EA030F4FF000457FF5DD
:1016A00043AF6B40841A71EB030603D2001BB141B8
:1016B000121973414FF4001C1CEB410F34BF7CEB3B
:1016C000430442E00C0DA4EB1356352E4FDC45EAE3
:1016D000C323DB0A45EAC121C912B6F120050DDD9D
:1016E00063FA05F6EB4086EA0305124218BF45F09F
:1016F0000105C01851F100010CD213E062FA06F5A1
:10170000F2405540F3415A40B340F3405A408018EC
:10171000594107D349085FEA30005FEA350528BF21
:1017200045F0010501F58011420875F1004250F1C4
:10173000000041EB04514E0016F5001F70BC38BF8D
:1017400070470020090D090570471CEB410F10D2AE
:1017500052EA43060BD0BCEB410F05D80C0DAB434E
:10176000661E342EB6DD02E0AB438018594170BCD2
:10177000704770BC70470000F0B540F2FF7581EA19
:10178000030C0CF0004C15EA11541DBF15EA135759
:10179000AC42AF42E5E0BC41C1F31301C3F3130314
:1017A000801A994143F4801304D2641E0018494101
:1017B00080185941C90241EA5051B1FBF3F603FBCD
:1017C0001611A2FB0675D7EBC020A94102D2761EE6
:1017D00080185941C90241EA5051B1FBF3FE03FBA5
:1017E0001E11A2FB0E75D7EBC020A94103D2AEF1AA
:1017F000010E80185941890241EA9051760546EA66
:101800008E2EB1FBF3F603FB1611A2FB0675D7EB88
:101810008020A94102D2761E80185941C90241EAAE
:1018200050514EEA060EB1FBF3F603FB1611A2FB74
:101830000675D7EBC020A94102D2761E8018594107
:10184000C90241EA5051B1FBF3F703FB1711A2FBA8
:101850000735D3EBC020A94167F100070CBF004258
:1018600047F0010766F3D5274FEA1E31B80814F593
:10187000806412DDBD0775F1004250EB0E5051EB54
:10188000045111F5801F5CBF41EA0C01F0BD4CF022
:101890007F6141F0E0410020F0BDBD076D0840EAE6
:1018A0000E5041F48011D4F10104B4F120060ADA9B
:1018B000C4F120060200E04001FA06F3E1401843BB
:1018C000B24015430EE0342C13DCC6F1200445EA87
:1018D00040056D0820FA06F2154321FA06F0A140F2
:1018E0000D43002175F1004250F1000051EB0C0155
:1018F000F0BD00205FEA0C01F0BDCFB992185B414A
:10190000B3FA83F704BFB2FA82F6BF190B3FB7F1FF
:1019100020062FBF02FA06F3BB40C7F1200622FAC9
:1019200006F638BF3343BA401CB1E419641E33E7EE
:101930007F4231F00041B1FA81F404BFB0FA80F681
:10194000A4190B3CB4F120062FBF00FA06F1A14008
:10195000C4F1200620FA06F638BF3143A0403C1BF4
:101960001AE7AC421ABF05EA1357AF4212E050EA39
:1019700041061CBF52EA4306BFE750EA4107304622
:1019800061461CBF41EA0551F0BD52EA430C08BF55
:10199000C143F0BD00204FF4001616EB410F98BF75
:1019A00016EB430F08BF16EB410F24BFC14305E000
:1019B00016EB430F0CBF61464CEA0551F0BD000029
:1019C000400D40F21E4C40EAC120BCEB115C40F0DF
:1019D000004003D48CF30701C84070476FEAE17000
:1019E0007047000050B1B0FA80F18840C91CC1F5C1
:1019F0008461090501EBD02140057047014670471D
:101A000030B540F2FF7C1CEA11541DBF1CEA13558F
:101A1000644565453FE0641981EA030C6FF35F5349
:101A20000CF0004C43F48013C90241F0004141EA3C
:101A3000505EC5021100A5FB020200284FF0000015
:101A4000EEFB01204FF00001E3FB052118BF42F03F
:101A50000102401800214941E3FB0E01A4F5806416
:101A60000D0302D292184041494154F1010470DD46
:101A7000450872F1004250F1000051EB0451A1F50C
:101A8000801102D441EA0C0130BD40F2FF7E4CEAE5
:101A90000E51002030BD0CEA1355644518BF654552
:101AA00081EA030C0CF0004C41D050EA410E1CBFFF
:101AB00052EA430E02E06146002030BD24422C442D
:101AC0001BD15FEA050EF6D0090302BF01460020D4
:101AD000AEF1140EB1FA81F5AEEB050401FA05FE84
:101AE0000C35C5F1200100FA05F5C8404EEA000E9C
:101AF0006FF35F5343F480139CE733F00043B3FA72
:101B000083F504BFB2FA82FE75440B3D641BB5F148
:101B1000200E2FBF02FA0EF3AB40C5F1200E22FAC1
:101B20000EFE38BF43EA0E03AA40641C7CE750EA6D
:101B3000410E14BF52EA430E6FF000014FF400153E
:101B400015EB430F8EBF194615EB410F9DE7B4D837
:101B500030BDD4F10104B4F120050FDAC4F1200541
:101B6000520828BF42F0010210FA05FE01FA05F5FD
:101B70007244E2BFE0402843E1400FE0352C9ADC9C
:101B8000C5F1200452EA400220FA05F218BF42F0E3
:101B9000010231FA05F0A1400A43002172F100422E
:101BA00050F1000051EB0C0130BD0000613807E03E
:101BB00005E0A0F161011A2901D2012070474138E6
:101BC0001A288041C00F7047A0F10901052901D3EF
:101BD000202801D10120704700207047A0F1410169
:101BE0001A2938BF203070470148704701487047B4
:101BF0008C00002054000020BBBBE1B1B2F5803F57
:101C000080F07E80022A1ED98C46B1FBF2F102FBE5
:101C100011C31B0443EA1043B3FBF2FC02FB1C3369
:101C200080B240EA0343B3FBF2F002FB103240EA19
:101C30000C4000237047022A05D98446B0FBF2F01D
:101C400002FB10C270474AB105D100F001024908F9
:101C50005FEA3000704700220023704700F0E8B8C8
:101C60000B000200002100207047904271EB030C32
:101C7000F6D3B3F5803F2FD2F0B5B3FA83F7B1FABC
:101C800081F4A7F10F0E3D1B5340CEF1200602FA5E
:101C90000EF2F3415340B5F10F0746D80F3C2C44E8
:101CA0004140C4F12006A040F1414140B1FBF3F6B0
:101CB00003FB1611A2FB0645001BA94102D2761EAA
:101CC0008018594180EA010221FA0EF362FA0EF2FD
:101CD00000215A403046F0BD30B4B1FBF3FC03FBA9
:101CE0001C11A2FB0C45001BA94103D2ACF1010C55
:101CF0008018594130BC02460B46604600217047AF
:101D0000B2F1807F65D3F0B5B2FA82F7B1FA81F40F
:101D1000C7F10F063D1B22FA06F307F1110EF2413F
:101D200020355A40B5F10F07B8D94140C4F120061B
:101D3000A040F1414140B1FBF3FC03FB1C11A2FBAD
:101D40000C45001BA94103D2BCF1010C801859417C
:101D50000F2F12D30F3FC90341EA5041B1FBF3F6F5
:101D600003FB1611A2FB0645D4EBC030A94102D2F9
:101D7000761E8018594146EACC3C07B34140C7F172
:101D80002006B840F1414140B1FBF3F603FB1611C8
:101D9000A2FB0645001BA94102D2761E80185941BC
:101DA00080EA010221FA0EF3C7F1200462FA0EF272
:101DB0000CFA07F05A402CFA04F13043F0BD80EAE7
:101DC000010221FA0EF3002162FA0EF260465A4037
:101DD000F0BD8C46B1FBF2F102FB11C31B0243EADA
:101DE0001063B3FBF2FC02FB1C331B024CEA002025
:101DF00043EA1063B3FBF2FC02FB1C331B024CEA08
:101E0000002043EA1063B3FBF2FC02FB1C331B020D
:101E10004CEA002043EA1063B3FBF2FC02FB1C32E5
:101E20004CEA002000237047012000F003B80000B6
:101E30007047000080B500F007F8024A1100182032
:101E4000ABBEFBE72600020010B500F03BF8020035
:101E500000230024E4431068A04203D011000220B4
:101E6000ABBE13605068A04203D0111D0220ABBE70
:101E7000536010BDF0B583B0040000F023F8A1005A
:101E800047183D680026F643B54216D1AFF30080EF
:101E90003D68B5420FD100BF09A00090002C01D1D0
:101EA000002000E0042001900320029069460120F8
:101EB000ABBE05003D60AFF30080280003B0F0BD6D
:101EC0003A74740000487047200100200346084619
:101ED0000122C168491CC1600021006818470346FF
:101EE0000846C1680269491C521E002A0261C1608D
:101EF00003D400680122002118474FF0FF307047DB
:101F0000034608461146C268521E11F1010FC26015
:101F100002D0006800221847704700002DE9F84FF2
:101F20009AB0002500914FF0FF381B680193029290
:101F30000DF13F02249B8DF81F30039519928146C5
:101F400013E00398401C0390012200980021C84729
:101F5000054600F079FE0028F3D12A466946484636
:101F6000FFF7CEFF0299481C02900298007800F01B
:101F70006BFE0028E5D1029D287820B9404500DAA3
:101F8000404600F039BD252809D1681C029001782F
:101F90002A2915D1401C0290401E007811E00398B8
:101FA000401C0390012200980021C84729788842EC
:101FB000D8D0024669464846FFF7A2FF0020DDE779
:101FC000002000218DF81C000591DFF8203A0AE07E
:101FD000059A9A4205DA02EB820501EB4501303998
:101FE0000591401C029002980178A1F130020A2A62
:101FF000EED34FF0FF37069701780FF6F410FFF796
:1020000071F820B10298401C0290401E00788DF8B3
:102010001D009DF81D00682805D102980278682AE5
:102020000CD1622106E06C2802BF029802786C2A6B
:1020300004D17121421C8DF81D1002920298017882
:102040000FF6A030FFF74EF880B90398401C0390BC
:10205000012200980021C847054600F0F5FD002840
:10206000F3D12A4669464846FFF74AFF0020029A04
:102070008DF81E00107825383AD01C3800F09F806B
:10208000001F022840F29B80133800F01583C01E09
:102090001FD0801F00F09380801E00F09284401EAD
:1020A00000F00A83401E022840F28980001F00F0E1
:1020B0000383401F41D0401E012840F2FD82001FD3
:1020C00038D0801E00F0F882C01E00F0F58200F0CB
:1020D00083BC3A4600F076BC2498002800F07D844A
:1020E00017F1230F40F079844FF0FF3000F084BCEB
:1020F0000398401C0390012200980021C847054620
:10210000252D0CD1B8F1000F48BF4FF000089DF805
:102110001E0000283FF426AF08F1010822E72A46F6
:1021200069464846FFF7ECFE15F1010F00F05584B3
:1021300000F052BC012200F045BC9DF81C000028B4
:10214000E0D19DF81D0062282DD0682811D06A28A2
:102150001BD06C2801D0712817D0019951F8040BBD
:10216000019118B90FF6842000F027BC0399016093
:10217000C8E7019951F8040B019118B90FF66C20CA
:1021800000F01BBC03990180BCE7019951F8040BD6
:10219000019118B90FF6542000F00FBC039AD31721
:1021A000C0E90023AEE7019951F8040B019118B979
:1021B0000FF6382000F001BC03990170A2E70598E2
:1021C0000028D8BF6FF00040049069464846FFF7EA
:1021D00086FE00250AAC2B2818BF2D2807D18DF8C4
:1021E000280069464846FFF77AFE0DF129040026CB
:1021F00030284FF00A0A16D169464846FFF76FFEAD
:1022000040F02001C9B2782902D001263146ECE025
:1022100030202070617048466946FFF760FEA41CBC
:102220004FF0100AF2E740F02001CAB26E2A4CD1FA
:102230006E2004F8010B69464846FFF750FE8346BE
:102240004BF02000C0B26128AA4640F0898161218C
:1022500004F8011B48466946FFF741FE83464BF0F0
:102260002000C0B26E2840F07B8169464846FFF7E7
:1022700036FE282806D0024669464846FFF740FE4B
:102280006E2052E00498401E049004D50398401C30
:102290000390BB4604E069464846FFF717FE8346B5
:1022A000CDF820B0584600F0D9FC0028EAD1ABF1B7
:1022B00030000A28E6D308985F28E3D08346BBF1B4
:1022C000290F40F04D816E202FE0C9B2692940F0FE
:1022D0009C80692004F8010B69464846FFF7FFFD22
:1022E00083464BF02000C0B26E28AA4640F03881E9
:1022F0006E2104F8011B48466946FFF7F0FD83464E
:102300004BF02000C0B2662840F02A81694648465A
:10231000FFF7E5FD40F02001C9B2692908D0024667
:1023200069464846FFF7ECFD662004F8010B1DE105
:1023300003980499401C491E00290491039005D478
:10234000009801220021C847834600E0BB464BF0BD
:102350002000C0B26E2840F0038103980499401C0D
:10236000491E00290491039005D400980122002100
:10237000C847834600E0BB464BF02000C0B2692846
:1023800040F0EE8003980499401C491E00290491F6
:10239000039005D4009801220021C847834600E03D
:1023A000BB464BF02000C0B2742840F0D98003989F
:1023B0000499401C491E00290491039005D40098FB
:1023C00001220021C847834600E0BB464BF02000B5
:1023D000C0B2792840F0C480662104F8011BC5E032
:1023E00069464846FFF772FD0121302808D104985C
:1023F000401E0490F4D50398401C03903846F3E740
:102400000E4611B1302104F8011B0146AB4630469F
:1024100005E069464846FFF759FD0146012011F1E4
:10242000010F24D0CBB2612BA8BFA1F157020ADA69
:10243000412BA8BFA1F1370205DA303B0A2B34BF8C
:10244000A1F13002FF22D2B2524510D2BBF1240FCB
:10245000BABF04F8011B0BF1010B6D1C0498401E60
:102460000490D6D50398401C03903946D6E78DF8E2
:1024700020000E46CDF824B0FFF7B8FB406A017883
:102480008E4210D104F8016B03980499401C491E38
:1024900000290491039005D4009801220021C84727
:1024A000064600E03E460998E0B99DF8201005E098
:1024B00069464846FFF70AFD06460121302E09D13C
:1024C00004986D1E401E0490F2D50398401C0390A2
:1024D0003E46F2E7002D8DF8201003D5302104F898
:1024E000011B6D1C30469DF82010099E04E06946D2
:1024F0004846FFF7EBFC012110F1010F22D0C3B2D7
:10250000612BA8BFA0F157020ADA412BA8BFA0F1A6
:10251000370205DA303B0A2B34BFA0F13002FF222C
:10252000D2B252450ED2242E08DB0498401E0490ED
:10253000DDD50398401C03903846DCE704F8010B16
:10254000761CF2E70E0083460AD04BF02000BAF169
:102550000A0FC0B234D1652834D001E083460E465C
:102560005A4669464846FFF7CBFC0EB3002121705E
:102570009DF81C0000287FF4C5ADBAF10A0F0B4688
:1025800074DC2A460AA800F063FC01228DF81E20A4
:102590009DF81D20019B6C2A73D153F8042B0193E5
:1025A000002A6BD1DFF84004784400F23C4004E29A
:1025B0000AA8844208BF1BF1010F40F00D820CE213
:1025C0007028CDD104F801BB0498401E049010D4AB
:1025D0000398401C0390012200980021C8472B2833
:1025E00018BF2D2811D104F8010B0498401E049047
:1025F00004D50398401C0390384606E00398401C1D
:102600000390012200980021C847002104E0694698
:102610004846FFF75BFC0121302808D10498401E92
:102620000490F4D50398401C03903846F3E70A0061
:102630001CBF302204F8012B002604E069464846FE
:10264000FFF744FC0121A0F130020A2A86D2082EAD
:1026500008DB0498401E0490F0D50398401C0390BA
:102660003846EFE704F8010B761CF2E700220AA8CF
:1026700000F0EEFBAA00FEF783FE86E7C2E9000148
:1026800040E54C2A0AD153F8042B0193002AF5D1D6
:10269000DFF85403784400F554708EE11D681A1D6C
:1026A00001922DB9DFF84003784400F54F7084E1C2
:1026B00000F08AFC286025E505980028CCBF401E64
:1026C000DFF81C0504900028039808AC1AD4401CBD
:1026D0000390012200980021C8472B2818BF2D28FD
:1026E00013D18DF820000DF1210403990498491CA1
:1026F000401E00280490039106D400980122002176
:10270000C84702E0401C039038460021029A127824
:10271000642A18BF752A0FD0692A08BF00250CD07B
:102720006F2A08BF082508D0702A1CBF42F020027B
:10273000782A02D1102500E00A2530282ED10498ED
:102740000126401E0490039805D4401C03900122EA
:102750000098C84702E0401C0390384640F0200132
:10276000C9B2782917D1002D18BF102D1ED1049899
:102770001025401E0490039807D4401C03900122AA
:1027800000980021C847002610E0401C03903E46F8
:102790004FF0000A4DE04DB9082507E0BDBB0A2502
:1027A00035E069464846FFF791FB0126302808D1FD
:1027B0000498401E0490F4D50398401C03903846BA
:1027C000F3E731460A0022D0302204F8012B1EE044
:1027D000412BA8BFA0F1370306DAA3F130020A2A81
:1027E00034BFA0F13003FF23DBB2EAB293421ED222
:1027F00019998C4214D30498401E0490039812D463
:10280000401C0390012200980021C847012110F1CB
:10281000010F0CD0C3B2612BDADBA0F15703E3E761
:1028200004F8010BE7E7401C0390012138460646F7
:102830008A46324669464846FFF762FBBAF1000F06
:102840001DD0002121709DF81C0000287FF45AAC97
:1028500002980078642818BF692869D02A4608A819
:1028600000F0BCFC01228DF81E20029A1378702B18
:1028700010D1019B53F8042B01934AB99CE008A89E
:10288000844240F0A98016F1010F00F0A680A3E079
:10289000106037E49DF81D20622A39D0682A11D0D3
:1028A0006A2A25D06C2A06D0712A29D0742A18D019
:1028B0007A2A0FD035E0019B53F8042B0193002AAC
:1028C000E6D179E0019B53F8042B0193002A73D0E1
:1028D000108017E4019B53F8042B0193002AD7D1F1
:1028E0006AE0019B53F8042B0193002AD0D163E0E6
:1028F000019B53F8042B0193002A7FF4BFAE5BE0E9
:10290000019B53F8042B0193002A7FF4B7AE53E0E8
:10291000019B53F8042B0193002A4DD01070FFF750
:10292000F1BB019B53F8042B0193002AB0D143E083
:102930002A4608A800F0A6FC01228DF81E209DF86A
:102940001D20622AE4D0682ABCD06A2A1DD06C2AD5
:1029500006D0712A21D0742A10D07A2A07D024E018
:10296000019B53F8042B0193002A91D124E0019B91
:1029700053F8042B0193002A8AD11DE0019B53F8E0
:10298000042B0193002A83D116E0019B53F8042BFA
:102990000193002A7FF472AE0EE0019B53F8042BE2
:1029A0000193002A7FF46AAE06E0019B53F8042BE2
:1029B0000193002A7FF46CAF9BA0FEF7ADFB3F1A9A
:1029C00005E000226946484600F03CF80746002F23
:1029D0003FF798ABFFF780BB0027B8F1000F7FF5FA
:1029E000CFAAB846FFF7CCBAF8730000CBCCCC0C1A
:1029F000686A6C747A4C00001BB0BDE8F08FC9B2F5
:102A000008E003789942A4BF90F802C08C4515DA1B
:102A1000C01CD21E032A09D343782D2BF1D010F805
:102A200001CB8C4518BF521EF4D107E042B110F81B
:102A3000013B8B4202D0521EF9D101E001207047C8
:102A4000002070472DE9F04F14460026002C83B07B
:102A500083460F464FF0000925D5B868411CB96080
:102A6000084601785E2903BF401CB86010F8018D4C
:102A7000C846BD6828785D280CBF681C28465D21C3
:102A8000FEF730FB002800F0A280411B0091B860E7
:102A90000098032807DB821E2D21681CFEF784FBAB
:102AA00008B14FF001097869002804DC002C14BF3C
:102AB0006FF0004001203861387F002801BF78683E
:102AC00050F804AB7860BAF1000F07D14FF0FF3433
:102AD00001487844801C10E064710000387FA8B978
:102AE000F87F98B1796851F8040B7960B0F1004F24
:102AF000C0F007804FF0FF3443A0FEF70DFB201A13
:102B00006BE0B969884288BF0846B861CDF8048097
:102B1000CDF80890DDF8008000E00226F8683969F9
:102B2000401C491E00293961F86002D54FF0FF3979
:102B300037E0386801220021D847814619F1010F9A
:102B40002FD0002C0CDC1ED50298002801980AD04A
:102B5000002842464946284612D0FFF750FF09E0B8
:102B600000F072F806E0002842464946284603D0A5
:102B7000FEF71AFB38B114E0FEF716FB88B102E04D
:102B8000FFF73DFF68B1387F0028C6D1B86938B17A
:102B90000AF8019B0121B869B977401EB861BCE70A
:102BA000012658464A463946FFF7AAF90CB1022ECB
:102BB00009D0022E10D0F00702D419F1010F06D16E
:102BC0004FF0FF3009E0387F30B9B86908B900200C
:102BD00003E000208AF80000012003B0BDE8F08F78
:102BE000FEFFFF7F63436E5B000000007363616E56
:102BF000665F733A2062616420256E20617267759A
:102C00006D656E74000000007363616E665F733AF9
:102C1000206261642025632C2025732C206F722094
:102C2000255B2073697A65007363616E665F733A32
:102C30002062616420696E746567657220617267E5
:102C4000756D656E7400000010B50446FEF7CCFF8C
:102C500001462046096ABDE81040084710B5044601
:102C6000FEF7C2FF014620460969BDE8104008474B
:102C7000F8B52DED048B140082B041EC180B1D4605
:102C800000F0DA8031F0004108BF002800F0D48065
:102C900051EC180B4A00521512F1010F02D1080332
:102CA00000F0CA80002C9FED689B57D56442654FA9
:102CB0007F4407F5C87708260CE0E00707D5D7E979
:102CC000002351EC190BFEF79BFE41EC190B640835
:102CD0000837761E002C18BF002EEED16A4651EC44
:102CE000180BFEF7E1FA009E53EC192BFEF744FD9A
:102CF0003246FEF745FB41EC180B31F0004108BFAE
:102D0000002800F0828051EC180B4A00521512F195
:102D1000010F01D1080378D0002C76D06A4651EC1F
:102D2000180BFEF7C1FA009E994A9A4BFEF768FE0F
:102D30003246FEF725FB41EC180B31F0004108BF8D
:102D4000002862D051EC180B4A00521512F1010F05
:102D500001D1080359D0641EE0D156E055DD394F4A
:102D60007F4407F1E0070826E00707D5D7E90023ED
:102D700051EC190BFEF744FE41EC190B64100837B7
:102D8000761E002C01DD002EEED16A4651EC180BA8
:102D9000FEF78AFA2646009C53EC192BFEF730FE0C
:102DA0002246FEF7EDFA41EC180B31F0004108BF66
:102DB00000282AD051EC180B4A00521512F1010FCD
:102DC00001D1080321D0002E1FDD6A4651EC180BFB
:102DD000FEF76AFA009C704A784BFEF711FE224615
:102DE000FEF7CEFA41EC180B31F0004108BF002885
:102DF0000BD051EC180B4A00521512F1010F01D102
:102E0000080302D0761E002EDFDC51EC180B31F0E7
:102E1000004108BF002808D051EC180B4A00521599
:102E200012F1010F08D1080306D1AFF300801DB1E4
:102E3000286840F00100286002B051EC180BBDEC8E
:102E4000048BF4BD1C6E0000000000000000F03F89
:102E50002DE9F14D81B00C462DED028B84B09346E7
:102E60005FEA030A1CBF0020CAF80000079D07A8FC
:102E700000F00BFAC11020F00800012801F0010851
:102E800032D10220009001AB07992246284600F07B
:102E90008DFA040008BF9FED4A0B1ED00298FEF782
:102EA00029FB022C41EC100B17DB03AF661E9FEDD4
:102EB0003B8B51EC100B53EC182BFEF7A1FD044695
:102EC00057F8040B0D46FEF715FB22462B46FEF77E
:102ED00023FB761E41EC100BEBD1019800EB0B02AB
:102EE000534651EC100B33E0022836D1009001AB71
:102EF00007992246284600F035FB040008BF9FEDE5
:102F0000300B1ED00298FEF7F5FA022C41EC100BA4
:102F100017DB03AF661E9FED238B51EC100B53ECB8
:102F2000182BFEF76DFD044657F8040B0D46FEF70F
:102F3000E1FA22462B46FEF7EFFA761E41EC100B23
:102F4000EBD1019A51EC100BFEF71AFA53465A4690
:102F5000FFF78EFE41EC100B0AE0032808BF9FED3F
:102F6000130B05D004280CBF9FED120B9FED140B23
:102F7000B8F1000F05D051EC100B81F0004141EC8D
:102F8000100B04B051EC100BBDEC028BBDE8FC8DB6
:102F9000436FAC642806C80A3CBF737F0000000082
:102FA00065CDCD41000000000000B04100000000F0
:102FB0000000F07FFFFFFFFFFFFFFF7FDD4F157574
:102FC000000000000000000001F000428B1AA3F195
:102FD0006051B1F5801F0ADBB1F17F6F1FD242EA69
:102FE000C102C10071F1004142EB507070470B15F6
:102FF000C3F10903212B10D2890241EA90518002CA
:103000000128494141F0004121FA03F0C3F12003B6
:10301000994071F1004150417047100070476FF0C6
:10302000000013EB103F5CBF000E42EAC050704737
:103030002DE9FC4F85B00C4693460BB100221A6077
:103040000290824601E00AF1010A9AF80000FFF7B7
:10305000FBFD0028F7D19AF800002D2818BF2B2877
:1030600007BF1AF8010B8DF800002B218DF8001016
:10307000BBF1000F019405D4BBF1010F02D0BBF1ED
:10308000250F04DB002C72D0029820606FE0BBF1AA
:10309000000F0DDDBBF1100F04BF9AF800003028BF
:1030A00002BF9AF8010040F02000782814D10EE009
:1030B0009AF80000302818BF4FF00A0B0CD19AF88C
:1030C000010040F02000782804D14FF0100B0AF1E5
:1030D000020A01E04FF0080BCDF810A001E00AF160
:1030E000010A9AF800003028F9D0094878442030C5
:1030F000002428300025CDF80CA000260027A0468B
:103100008DF80100DFF80890F94409F1040919E08D
:10311000DC6A000001469DF80100081A5FFA80F899
:103120005846A0FB04234FEAEB7100FB053301FB7B
:103130000433264600212F4612EB080443EB010519
:103140000AF1010A9AF8000000F012FB01465A4603
:1031500009F12800FEF728F80028DBD10499514531
:103160005A4607D1019810B10199029808600020D1
:10317000002130E0039919F80200AAEB0101091AB5
:1031800000291BD410DC0023B4EB080065EB03011D
:103190008D4209D301D8844206D3D317FEF72CFD04
:1031A000B94208BFB04209D0AFF30080069808B119
:1031B000012101604FF0FF34254606E09DF8000034
:1031C0002D2802D1644265EB4505019808B1C0F88D
:1031D00000A02046294607B0BDE8F08F00BF0023BD
:1031E00026E700002DE9F8430C0091461D4608BF74
:1031F0006C468046474600E07F1C3878FFF724FD88
:103200000028F9D13E782D2E18BF2B2E05D117F8A6
:10321000010FFFF719FD08B109E02B262B464A469E
:1032200021463846FFF704FF2268974205D1C4F8CB
:10323000008000200021BDE8F4832B2E05D14FF043
:103240000043994209D2BDE8F4832D2EFBD1B1F1A0
:10325000004F12D301D801280FD3AFF300800DB176
:10326000012028602D2E19BF4FF0FF306FF0004174
:1032700000204FF00041BDE8F483404261EB410182
:10328000BDE8F48300BF0023ACE72DE9F843054611
:103290000C462E68002700E0761C3078FFF7D4FC3F
:1032A0000028F9D130782D280CBF08272B2800D111
:1032B000761C307840F020016E2927D1707840F0DC
:1032C0002000612802BFB07840F020006E2802D0B4
:1032D0002E68002746E0F61CB046042798F8000048
:1032E00028283FD118F8019F4846FFF7B7FC00286F
:1032F000F8D1A9F130000A28F4D398F800005F282B
:10330000F0D029282ED108F101062BE069292CD113
:10331000707840F020006E2802BFB07840F02000A6
:10332000662802D02E6800271CE016F8030F40F034
:10333000200047F00307692802BF707840F02000A2
:103340006E280FD1B07840F02000692802BFF078D5
:1033500040F02000742805D1307940F02000792811
:1033600008BF761DF4B126601CE0302802BF7078DB
:1033700040F02000782813D1B01C01782E2908BF16
:10338000401C0078A0F16101062921BFA0F1410293
:10339000062A30380A2803D2B61C47F0020701E09B
:1033A00047F001072E603846BDE8F2832DE9F14F62
:1033B0008CB04FF00008169D05EBC5059246C3463C
:1033C0002D2DC8BF2D25C3F800B0C3F804B0D946D1
:1033D00002E0491C4FF0010908783028F9D0002498
:1033E00011E01868401C18600A78302A08D04FF0A5
:1033F000010805E0AC42F4DA30380DF80400641C32
:10340000491C4FF001090878A0F130020A2AF1D3D3
:103410000F461E46FEF7EAFB406A39780278914271
:1034200008BF7F1C002C48460ED1397830290BD1BB
:103430003068401E30607F1C0120F6E7302918BF3D
:103440004FF001087F1C01203978A1F130020A2ACF
:103450000AD2AC42F2DAA1F130000DF80400641C8B
:103460003268521E3260EDE7B8F1000F0DD0ADF1B9
:103470000102515D491C515507E0ADF10103195D91
:1034800049B93268521C3260641E002CF5DC04BF5E
:103490008DF800B00124002856D0092394FBF3F3E3
:1034A000C4F1090903EBC3034B44092193FBF1F178
:1034B000002201EBC101591A1AD04FF0010B17E09D
:1034C00056F82B1001EB810105EB410146F82B105A
:1034D0000CE0092193FBF1F101EBC1011DF8025051
:1034E000591AEDD10BF1010B46F82B505B1C521C05
:1034F000A242EEDB397841F02001652924D139461A
:1035000017F8012F2B2A16BF2D2A17F8013B2B2362
:1035100000220024124D08E0AC4204DA04EB8402DD
:103520000CEB4204303C7F1C012297F800C0ACF148
:10353000300EBEF10A0FEFD32D2B08BF6442336863
:10354000E418346002B90F46BAF1000F03D000B995
:103550000C9FCAF8007058460DB0BDE8F08F00BF50
:1035600000E1F5052DE9F14F8CB00025169FC7EB62
:10357000C7079046232FC8BF23271D605D60A9465B
:1035800002E0491C4FF0010908783028F9D000BF4B
:103590000FF2AC1070A2AA46019000920DF1080B38
:1035A0000C461E4610E03168491C316009E0574561
:1035B000F9DB019A0099801A085C0BF80A000AF1FD
:1035C000010A641C4FF0010994F800105CA0162257
:1035D000FDF7EAFD0028EAD1FEF708FB406A2178F2
:1035E0000278914208BF641CBAF1000F19D120780B
:1035F000302816D13168491E3160641C4FF0010932
:10360000F5E757450ADB019A0099801A085C0BF828
:103610000A000AF1010A3168491E3160641C4FF04A
:10362000010921785FF0160245A0FDF7BDFD0028D5
:10363000E7D151468F42484615DA1BF80710072993
:1036400004DD0DF10702D15D491CD15539463368BF
:103650005B1C336007E00DF107035A5C4AB933681D
:103660005B1C3360491E0029F5DC04BF8DF808504F
:103670000121326892000028326054D0072791FB64
:10368000F7F7C1F1070CC7EBC7076744072297FBA1
:10369000F2F20023C2EBC202BA1A17D0012515E0DC
:1036A00056F825200CEB021246F825200CE002AA61
:1036B00012F803C0072297FBF2F2C2EBC202BA1A59
:1036C000EED16D1C46F825C07F1C5B1C8B42EEDBE7
:1036D000217841F02001702925D1214614F8012FCD
:1036E0002B2A16BF2D2A14F8013B2B23002200277A
:1036F000DFF848C008E0674504DA07EB87020EEB05
:103700004207303F641C012294F800E0AEF130091A
:10371000B9F10A0FEFD32D2B08BF7F423368FF1892
:10372000376002B90C46B8F1000F03D000B90C9C09
:10373000C8F8004028460DB0BDE8F08F00E1F5055F
:103740003031323334353637383961626364656617
:1037500041424344454600000001020304050607B8
:1037600008090A0B0C0D0E0F0A0B0C0D0E0F0000B2
:1037700010B50446FEF738FA01462046896ABDE8CE
:103780001040084770B50400002C01D10120E1E091
:1037900094F83D00002805D1002084F83C0020006A
:1037A00000F010FE242084F83D00206800684008E6
:1037B0004000216808602068006850F400402168DB
:1037C00008602068006830F400402168086000F05C
:1037D000DEFE0200DFF880016168814208D2DFF876
:1037E0007C118A4201D2012100E00021C9B207E028
:1037F000DFF86C118A4201D2012100E00021C9B238
:10380000012901D10120A5E0DFF85811B2FBF1F147
:1038100023685B689B099B010B4325686B602368E9
:103820001B6A6568854201D24D1C08E04FF496750D
:1038300005FB01F54FF47A76B5FBF6F56D1C9B0997
:103840009B012B4325682B622368DB6965688542F1
:1038500014D2501E65686D00B0FBF5F0401C0005E9
:10386000000D042801D204253EE0501E65686D005D
:10387000B0FBF5F56D1C2D052D0D35E0A068002879
:1038800009D1551E666803204643B5FBF6F0401C7F
:103890000005000D0AE0551E666819204643B5FB79
:1038A000F6F0401C0005000D50F48040000501D1E9
:1038B000012519E0A068002809D1551E666803207B
:1038C0004643B5FBF6F56D1C2D052D0D0AE0551E82
:1038D000666819204643B5FBF6F56D1C2D052D0DC8
:1038E00055F4804555F40045DFF87C0003402B4338
:1038F0002068C3612068036833F0C003E0690343B4
:10390000206A03432068036020688368DFF85C0056
:10391000034020690343E068034320688360206814
:10392000C3681B0A1B02A069034360690343206844
:10393000C3602068006850F0010023681860002010
:103940002064202084F83D0000202063002084F8BB
:103950003E00002070BD0000A186010080841E0092
:1039600000093D0040420F000030FFFF007CFFFFD8
:103970002DE9FE4F05000E0017009846DDF8309047
:103980000D9CDDF838A000F027FE834695F83D0039
:10399000202840F0A180CDF800B019230122DFF8E3
:1039A0005814280000F05AFB002801D0022094E0AF
:1039B00095F83C00012801D102208EE0012085F815
:1039C0003C0028680068C00705D42868006850F0EB
:1039D0000100296808602868006830F400602968E0
:1039E0000860212085F83D00402085F83E00002039
:1039F0002864C5F824906C85688D2885DFF8F40369
:103A0000E862CDF804B0CDF800A043469BB23A007E
:103A100092B2310089B2280000F0F2F9002801D0FA
:103A200001205AE0288D002833D05A4651462800FC
:103A300000F0F0FB00280AD0286C042805D1286883
:103A4000006850F4007029680860012045E0686A49
:103A5000007829680861686A401C6862288D401EE9
:103A60002885688D401E6885286840694007D9D53B
:103A7000288D0028D6D0686A007829680861686AAD
:103A8000401C6862288D401E2885688D401E688510
:103A9000C8E75A465146280000F0ECFB00280AD03F
:103AA000286C042805D12868006850F40070296843
:103AB0000860012011E02868006850F4007029684F
:103AC0000860202085F83D00002085F83E00002099
:103AD00085F83C00002000E00220BDE8FE8F0000D9
:103AE0002DE9F24F82B0050016001F00DDF830808E
:103AF0000D9CDDF8389000F06FFD824695F83D0092
:103B0000202840F07381CDF800A019230122DFF8AE
:103B1000E812280000F0A2FA002801D0022066E195
:103B200095F83C00012801D1022060E1012085F8D0
:103B30003C0028680068C00705D42868006850F079
:103B40000100296808602868006830F4006029686E
:103B50000860222085F83D00402085F83E000020C6
:103B60002864C5F824806C85688D2885DFF8840278
:103B7000E862CDF804A0CDF800903B009BB2320083
:103B800092B2BDF80810280000F0B0F9002801D06A
:103B900001202CE1288D00280FD1002000902868FA
:103BA0004069009028688069009000982868006843
:103BB00050F40070296808603AE0288D012815D17A
:103BC0002868006830F48060296808600020009050
:103BD00028684069009028688069009000982868EB
:103BE000006850F400702968086021E0288D0228E0
:103BF00015D12868006830F480602968086028685A
:103C0000006850F40060296808600020009028686F
:103C100040690090286880690090009808E00020C2
:103C2000009028684069009028688069009000989A
:103C3000288D002800F0CF80288D042880F09980FE
:103C4000288D012816D152464946280000F044FB31
:103C5000002801D00120CAE028680069696A08705C
:103C6000686A401C6862288D401E2885688D401E49
:103C70006885DDE7288D02282DD1CDF800A04B46C0
:103C80000022DFF87811280000F0E8F9002801D0C0
:103C90000120ACE02868006850F4007029680860D2
:103CA00028680069696A0870686A401C6862288D23
:103CB000401E2885688D401E688528680069696AED
:103CC0000870686A401C6862288D401E2885688DCF
:103CD000401E6885ACE7DFF824B1CDF800A04B4664
:103CE00000225946280000F0B9F9002801D001202F
:103CF0007DE02868006830F48060296808602868E2
:103D00000069696A0870686A401C6862288D401EF4
:103D10002885688D401E6885CDF800A04B4600229E
:103D20005946280000F09AF9002801D001205EE0F1
:103D30002868006850F400702968086028680069E5
:103D4000696A0870686A401C6862288D401E288570
:103D5000688D401E688528680069696A0870686A0D
:103D6000401C6862288D401E2885688D401E68852D
:103D70005EE752464946280000F0AEFA002801D01E
:103D8000012034E028680069696A0870686A401C8C
:103D90006862288D401E2885688D401E68852868C9
:103DA000406940077FF544AF288D032805D1286876
:103DB000006830F480602968086028680069696AD2
:103DC0000870686A401C6862288D401E2885688DCE
:103DD000401E68852CE7202085F83D00002085F8EE
:103DE0003E00002085F83C00002000E00220BDE8F5
:103DF000FE8F00000000FFFF020010000400010021
:103E00002DE9F84304000D0016001F00DDF82080A6
:103E1000DDF824902068006850F480702168086004
:103E2000CDF80090434600225FF00111200000F021
:103E300015F9002808D020680068C00502D54FF4A5
:103E40000070206403204FE015F0FE002168086137
:103E50004B464246DFF87C14200000F062F900284F
:103E600001D0012040E000200090206840690090CF
:103E700020688069009000984A464146200000F082
:103E8000C9F900280AD0206C042805D120680068F0
:103E900050F4007021680860012025E0380080B2ED
:103EA000012804D13000C0B2216808611BE0300055
:103EB00080B2000AC0B2216808614A46414620002B
:103EC00000F0A8F900280AD0206C042805D1206849
:103ED000006850F4007021680860012004E03000A0
:103EE000C0B2216808610020BDE8F2832DE9FC47DB
:103EF00004000D0016001F00DDF82880DDF82C906E
:103F00002068006850F480602168086020680068BC
:103F100050F4807021680860CDF80090434600227C
:103F20005FF00111200000F099F8002808D0206807
:103F30000068C00502D54FF40070206403208BE0B8
:103F400015F0FE0021680861DFF888A34B46424661
:103F50005146200000F0E5F8002801D001207BE068
:103F600000200090206840690090206880690090DF
:103F700000984A464146200000F04CF900280AD03B
:103F8000206C042805D12068006850F40070216876
:103F90000860012060E0380080B2012804D13000C0
:103FA000C0B2216808611BE0300080B2000AC0B2D4
:103FB000216808614A464146200000F02BF900289C
:103FC0000AD0206C042805D12068006850F40070E5
:103FD0002168086001203FE03000C0B2216808611C
:103FE0004A464146200000F015F900280AD0206C0E
:103FF000042805D12068006850F40070216808602A
:10400000012029E02068006850F480702168086071
:10401000CDF80090434600225FF00111200000F02F
:104020001DF8002808D020680068C00502D54FF4AC
:104030000070206403200FE055F00100C0B2216839
:1040400008614B4642465146200000F06AF80028BD
:1040500001D0012000E00020BDE8F6872DE9F04105
:1040600005000E0017001C00DDF818803000000C61
:10407000C0B201280AD128684069304080B2B1B28C
:10408000884201D101200BE0002009E02868806906
:10409000304080B2B1B2884201D1012000E000205E
:1040A0003900C9B2884239D114F1010FDED000F0D5
:1040B00093FAB0EB0800844201D3002CD6D1300033
:1040C000000CC0B201280AD128684069304080B293
:1040D000B1B2884201D101200BE0002009E028683C
:1040E0008069304080B2B1B2884201D1012000E045
:1040F00000203900C9B28842B8D1002028632020AE
:1041000085F83D00002085F83E00286C50F0200026
:104110002864002085F83C00012000E00020BDE874
:10412000F081F8B505000E0014001F003000000CEF
:10413000C0B201280AD128684069304080B2B1B2CB
:10414000884201D101200BE0002009E02868806945
:10415000304080B2B1B2884201D1012000E000209D
:10416000002855D12868406940051AD5286800689C
:1041700050F40070296808607FF480602968486105
:1041800000202863202085F83D00002085F83E00AF
:10419000286C50F004002864002085F83C000120C1
:1041A00037E014F1010FC1D000F016FAC01B8442B1
:1041B00001D3002CBAD13000000CC0B201280AD1C2
:1041C00028684069304080B2B1B2884201D10120F4
:1041D0000BE0002009E028688069304080B2B1B26D
:1041E000884201D1012000E0002000289ED100205B
:1041F0002863202085F83D00002085F83E00286CCB
:1042000050F020002864002085F83C00012000E0E8
:104210000020F2BD70B505000C001600286840694A
:10422000000625D4280000F094F8002801D00120D1
:104230001FE014F1010FF1D000F0CEF9801B844291
:1042400001D3002CEAD1286840690006E6D400209A
:104250002863202085F83D00002085F83E00286C6A
:1042600050F020002864002085F83C00012000E088
:10427000002070BD70B505000C001600286840696C
:10428000400725D4280000F064F8002801D0012060
:104290001FE014F1010FF1D000F09EF9801B844261
:1042A00001D3002CEAD1286840694007E6D40020F9
:1042B0002863202085F83D00002085F83E00286C0A
:1042C00050F020002864002085F83C00012000E028
:1042D000002070BD0200010070B505000C00160042
:1042E00028684069400632D428684069C00612D563
:1042F0007FF010002968486100202863202085F89D
:104300003D00002085F83E00286C2864002085F8D8
:104310003C0001201CE000F05FF9801B844201D3C7
:10432000002CDDD1286840694006D9D400202863DC
:10433000202085F83D00002085F83E00286C50F0D4
:1043400020002864002085F83C00012000E00020C7
:1043500070BD010008684069400514D57FF4806095
:104360000A68506100200863202081F83D00002089
:1043700081F83E00086C50F004000864002081F8C9
:104380003C00012000E000207047000080B5284874
:104390002849016028494160002181600021C160F5
:1043A0004FF48041016100214161002181610021C0
:1043B000C16100210162FFF7E5F9002801D000F09A
:1043C00081F901BD10B586B004001421002201A8B6
:1043D00000F07AF920681749884226D10020009021
:1043E0001648016851F002010160006810F00200F7
:1043F000009000984FF4407001901220029000202D
:104400000390032004900420059001A90C4800F0BB
:104410008FF9002000900B48016851F400110160F1
:10442000006810F400100090009806B010BD000065
:104430004804002000540040801A06003038024032
:1044400000040240403802402DE9F04104000D0014
:10445000002C01D1012095E0584F386810F007007A
:10446000A84207D23D70386810F00700A84201D07A
:10447000012087E02078800716D52078400704D5F2
:104480004F48016851F4E05101602078000704D5DD
:104490004B48016851F46041016049490A6832F0B3
:1044A000F002A06802430A602078C00738D560682F
:1044B000012805D143480068800313D4012061E03E
:1044C0006068022802D06068032805D13D48006872
:1044D000800107D4012055E03A480068800701D4E4
:1044E00001204FE0DFF8D880D8F800108908890053
:1044F00060680143C8F8001000F06EF80600D8F8B4
:10450000000010F00C006168B0EB810F08D000F0E3
:1045100063F8801B41F289318842F0D3032031E0F7
:10452000386810F00700854207D23D70386810F0F7
:104530000700A84201D0012024E02078400706D5DA
:104540001F490A6832F4E052E06802430A602078AA
:10455000000707D51A48016831F46041226951EA21
:10456000C201016000F00CFA1749154A1268C2F343
:104570000312895CC840154908601548006800F0BE
:104580004DFA0020BDE8F08110480068704780B502
:10459000FFF7FAFF0F490A4A1268C2F38222895CC8
:1045A000C84002BD80B5FFF7EFFF0A49044A126810
:1045B000C2F34232895CC84002BD0000003C0240A8
:1045C0000838024000380240809F00085000002058
:1045D0004C000020D09F000801480068704700BFD1
:1045E0005008002080B500F03FFA00F015F800F008
:1045F00055FA00F0E5FA00F003FB00F044FB00F090
:1046000083FB00F0C2FB00F001FC00F06BFDFFF744
:10461000BDFE00F043FEFEE780B592B030210022DF
:1046200006A800F051F81421002201A800F04CF86F
:10463000002000902148016851F08051016000681D
:1046400010F0805000900098002000901C480168F5
:1046500051F440410160006810F44040009000981F
:10466000022006900120099010200A9002200C9050
:1046700000200D9008200E9064200F9002201090D2
:104680000420119006A800F05BFE002801D000F085
:1046900019F80F20019002200290002003904FF49F
:1046A0008050049000200590032101A8FFF7CCFE64
:1046B000002801D000F006F813B000BD40380240D9
:1046C0000070004072B6FEE762F30F2262F31F42F1
:1046D000401810F0030308D0C91A1FD3DB0748BFE6
:1046E00000F8012D28BF20F8022D130030B4144625
:1046F0001546103928BF20E93C00FAD8490728BFE1
:1047000020E90C0048BF40F8042D890028BF20F89C
:10471000022D48BF00F8012D30BC7047C91818BFE2
:1047200000F8012DCB0728BF00F8012D70470000CD
:10473000F8B50024002500260023102B80F0FC8013
:104740005FF0010C1CFA03F214000A682240150005
:10475000A54240F0EF800A7912F00302012A04D04A
:104760000A7912F00302022A22D187685FF0030E51
:104770001A00D2B252001EFA02FE37EA0E07D1F832
:104780000CE01A00D2B252001EFA02FE5EEA0707DF
:10479000876042681CFA03FC32EA0C02D1F804C0BC
:1047A000CCF3001C1CFA03FC5CEA02021600466013
:1047B0000A7912F00302032A14D0C7685FF0030CD1
:1047C0001A00D2B252001CFA02FC37EA0C07D1F8E8
:1047D00008C01A00D2B252001CFA02FC5CEA0707B9
:1047E0003E00C6600A7912F00302022A1ED11A00A6
:1047F000D20810EB8202176A5FF00F0C13F0070269
:10480000D2B292001CFA02FC37EA0C07D1F810C0B1
:1048100013F00702D2B292001CFA02FC5CEA07070E
:104820003E001A00D20810EB8202166207685FF0A1
:10483000030C1A00D2B252001CFA02FC37EA0C0731
:1048400091F804C01CF0030C1A00D2B252001CFAFA
:1048500002FC5CEA07073E0006604A6812F4403F2B
:1048600068D0002200923B4A176857F480471760CF
:10487000126812F480420092009ADFF8DCC01A003D
:1048800092085CF822705FF00F0E13F00302D2B2B0
:1048900092001EFA02FE37EA0E07304A904201D11A
:1048A000002614E02E4A904201D101260FE02D4A45
:1048B000904201D102260AE02B4A904201D1032600
:1048C00005E02A4A904201D1042600E00726F6B20C
:1048D00013F00302D2B29200964037431A009208B6
:1048E0004CF82270224E3268AA43D1F804C05FEA25
:1048F000CC2C00D52A4332601E4F3E68AE43D1F81F
:1049000004C05FEA8C2C00D52E433E601A4F3A68F3
:10491000AA43D1F804C05FEA8C3C00D52A433A6030
:10492000164F3E68AE43D1F804C05FEACC3C00D5D8
:104930002E433E605B1C00E7F1BD1300DBB2002B91
:1049400003D00B009BB2836103E00B009BB21B04FE
:10495000836170474438024008380140000002403B
:104960000004024000080240000C02400010024017
:10497000083C01400C3C0140043C0140003C01402B
:104980002DE9F04100240025002600271F4800687B
:1049900010F00C00002804D0042804D0082804D00B
:1049A00031E01B4830E01B482EE0DFF86C80D8F87F
:1049B000000010F03F000400D8F8000040020CD5C1
:1049C000D8F80000C0F388101249A1FB00012200B2
:1049D0000023FDF711F905000BE0D8F80000C0F343
:1049E00088100B49A1FB000122000023FDF704F908
:1049F0000500D8F80000C0F30140401C400006004C
:104A0000B5FBF6F000E00248BDE8F081083802404E
:104A10000024F40040787D010438024010B5040001
:104A20004FF47A700D490978B0FBF1F00C49096830
:104A3000B1FBF0F000F014FF002801D001200CE0E1
:104A4000102C09D2002221005FF0FF3000F0ECFEB4
:104A500004480460002000E0012010BD2A0100206D
:104A6000500000204C00002080B50B48016851F434
:104A700000710160016851F480610160016851F4C6
:104A800080710160032000F0C9FE0F20FFF7C6FF10
:104A900000F0FCFE002002BD003C024038B586B0AC
:104AA000142100226846FFF70FFE002005904048C1
:104AB000016851F004010160016811F004010591E1
:104AC000059900210591016851F08001016001689C
:104AD00011F080010591059900210591016851F0BF
:104AE00001010160016811F00101059105990021A2
:104AF0000591016851F002010160006810F00200A8
:104B0000059005982B4C00224FF400512000FFF730
:104B100014FF294D00224FF470412800FFF70DFFCC
:104B20004FF40050009001200190002002900020DE
:104B3000039069462000FFF7FBFD4FF440400090D2
:104B4000032001900020029069462000FFF7F0FD4D
:104B500048F2906000900320019000200290694686
:104B60001648FFF7E5FD40F23F400090032001901A
:104B70000020029069462800FFF7DAFD4FF47040EC
:104B800000900120019000200290012003906946CE
:104B90002800FFF7CDFD802000905FF48810019081
:104BA0000220029069462800FFF7C2FD07B030BD21
:104BB0003038024000080240000402400000024079
:104BC00080B5002000900D48016851F4800101601B
:104BD000006810F480000090009800220021392025
:104BE00000F022FE392000F034FE00220021452092
:104BF00000F01AFE452000F02CFE01BD30380240C6
:104C000018B587B01421002202A8FFF75DFD082126
:104C100000226846FFF758FDDFF89044DFF8900463
:104C20002060002060600020A0604FF6FF70E06010
:104C300000202061002060610020A061200000F0C1
:104C400045FE002801D0FFF73DFD072002905020CF
:104C500003900A2004900020069002A9200000F092
:104C6000E3FF002801D0FFF72DFD00200090002079
:104C700001906946200001F0B1F9002801D0FFF74A
:104C800021FD08B010BD18B587B01421002202A87C
:104C9000FFF71AFD082100226846FFF715FDDFF82F
:104CA00014445FF080402060002060600020A0601D
:104CB0005FF0FF30E060002020610020A061200054
:104CC00000F004FE002801D0FFF7FCFC0720029052
:104CD000502003900A2004900020069002A9200092
:104CE00000F0A2FF002801D0FFF7ECFC00200090AC
:104CF000002001906946200001F070F9002801D0E1
:104D0000FFF7E0FC08B010BD18B587B014210022F1
:104D100002A8FFF7D9FC082100226846FFF7D4FC5F
:104D2000DFF89443DFF894032060002060600020E7
:104D3000A0604FF6FF70E060002020610020A061BD
:104D4000200000F0C3FD002801D0FFF7BBFC0720C6
:104D50000290502003900A2004900020069002A99F
:104D6000200000F061FF002801D0FFF7ABFC00201D
:104D70000090002001906946200001F02FF90028E2
:104D800001D0FFF79FFC08B010BD18B587B0142103
:104D9000002202A8FFF798FC082100226846FFF7CE
:104DA00093FCDFF81C43DFF81C03206000206060E8
:104DB0000020A0604FF6FF70E0600020206100201E
:104DC000A061200000F082FD002801D0FFF77AFCEE
:104DD00007200290502003900A20049000200690A3
:104DE00002A9200000F020FF002801D0FFF76AFC94
:104DF00000200090002001906946200001F0EEF8AC
:104E0000002801D0FFF75EFC08B010BD18B589B0CE
:104E1000082100226846FFF757FC1C21002202A847
:104E2000FFF752FCA84CA948206044F61F60606060
:104E30000020A060FE20E060002020610020A06132
:104E4000200000F0BFFD002801D0FFF73BFC002050
:104E50000090002001906946200001F0BFF8002872
:104E600001D0FFF72FFC602002900020039000206B
:104E7000049000200690002202A9200000F056FEB7
:104E8000002801D0FFF71EFC042202A9200000F038
:104E90004DFE002801D0FFF715FC082202A92000D2
:104EA00000F044FE002801D0FFF70CFC0C2202A900
:104EB000200000F03BFE002801D0FFF703FC20009B
:104EC00000F0CBF80AB010BD10B586B00400142174
:104ED00000226846FFF7F8FB20687549884227D111
:104EE000002005907A48016851F0010101600068D6
:104EF00010F00100059005980020059075480168A4
:104F000051F001010160006810F001000590059862
:104F10004FF4807000900220019002200290002047
:104F200003900120049069466B48FFF701FC7FE085
:104F30002068B0F1804F26D10020059067480168B5
:104F400051F001010160006810F001000590059822
:104F5000002005905F48016851F001010160006880
:104F600010F001000590059820200090022001908B
:104F700002200290002003900120049069465648C8
:104F8000FFF7D6FB54E020684C49884226D1002028
:104F900005905248016851F002010160006810F06C
:104FA000020005900598002005904A48016851F0DC
:104FB00001010160006810F0010005900598402093
:104FC0000090022001900220029000200390022015
:104FD000049069464048FFF7ABFB29E02068394957
:104FE000884225D1002005903C48016851F0040119
:104FF0000160006810F004000590059800200590FD
:105000003448016851F002010160006810F00200AC
:105010000590059840200090022001900220029007
:10502000002003900220049069462D48FFF780FB82
:1050300006B010BD81B00168244A91420BD1002115
:10504000009126490A6852F008020A60096811F0C6
:1050500008010091009901B0704710B586B00400B6
:105060001421002201A8FFF72FFB2068174988426E
:1050700019D1002000901748016851F0010101602A
:10508000006810F00100009000980F2001900220AD
:10509000029000200390012004900220059001A9B5
:1050A0000D48FFF745FB06B010BD0000EC040020E2
:1050B00000000140340500207C0500200004004071
:1050C000C4050020000800400C060020000C004031
:1050D000443802403038024000000240403802406C
:1050E0000004024080B54548454901605FF4E13164
:1050F0004160002181600021C160002101610C211B
:105100004161002181610021C16100F0B3FF0028ED
:1051100001D0FFF7D7FA01BDF8B586B0040014211D
:10512000002201A8FFF7D0FA20683549884262D1F1
:10513000002000903348016851F0200101600068B0
:1051400010F0200000900098002000902E48016888
:1051500051F001010160006810F00100009000981A
:105160004FF4C050019002200290022003900320CF
:1051700004900820059001A92448FFF7D9FA244D8E
:10518000244828605FF020666E604020A860002000
:10519000E8604FF480672F61002068610020A861FB
:1051A0000020E8610020286200206862280001F0E9
:1051B0007FFB002801D0FFF785FAA563AC63164D8D
:1051C000164828606E600020A8600020E8602F610B
:1051D000002068610020A8610020E86100202862AA
:1051E00000206862280001F063FB002801D0FFF76F
:1051F00069FAE563AC6307B0F0BD00005406002017
:10520000001401404438024030380240000002409F
:1052100088030020A0640240E803002028640240C4
:1052200080B5384800F089FB374800F086FB3748E6
:1052300000F083FB364800F080FB01BD38B5354CEB
:10524000354D4FF4004000902B00002221003348E0
:1052500001F0BEFD4FF4804000902B00042221009D
:105260002F4801F0B5FD4FF4005000902B000822AC
:1052700021002C4801F0ACFD4FF4805000902B0031
:105280000C222100284801F0A3FD31BD80B5C823C0
:10529000264A2749274801F000FF01BD38B502F032
:1052A00088F9FFF7BDFFFFF7C9FFFFF7EFFF002405
:1052B0000025FFF791F9001BB0F57A7F04D3FFF7C3
:1052C0008BF9040002F0BAFB1B480078002807D0D5
:1052D0001A490878002803D00020087002F09AFAD2
:1052E00002F0B4FBFFF778F9401B0A2804D3FFF75C
:1052F00073F9050001F0CFFD02F038FB02F03FFC2E
:10530000D7E70000EC040020340500207C050020D5
:10531000C40500200C06002000040240DC0600202A
:1053200004070020540700202C070020F80100206B
:1053300054060020BC0700205C0800205D08002007
:105340002DE9F8430400002C01D10120DAE1207896
:10535000C0075FD5DFF8B003016811F00C01042924
:1053600009D0006810F00C0008280ED1DFF89C036B
:105370000068400209D5DFF898030068800349D52A
:105380006068002846D10120BCE16068B0F5803F2C
:1053900006D1DFF87C03016851F48031016018E028
:1053A0006068B0F5A02F0AD1DFF86403016851F4FA
:1053B00080210160016851F48031016009E0DFF86B
:1053C0005003016831F480310160016831F48021BB
:1053D0000160606800280ED0FFF7FEF80500DFF8D6
:1053E00030030068800315D4FFF7F6F8401B6528EA
:1053F000F5D3032086E1FFF7EFF80500DFF810038F
:105400000068800306D5FFF7E7F8401B6528F5D351
:10541000032077E1207880074CD5DFF8EC020168A3
:1054200011F00C0F08D0006810F00C00082814D1FF
:10543000B6480068400210D4B5480168890704D511
:10544000E168012901D001205CE1016831F0F80137
:10545000226951EAC20101602CE0E068002818D0FE
:105460000120AC490860FFF7B7F80500A8480168BB
:10547000890706D4FFF7B0F8401B0328F6D30320B2
:1054800040E1016831F0F801226951EAC20101608E
:1054900010E000209F490860FFF79EF805009C4837
:1054A0000068800706D5FFF797F8401B0328F6D35E
:1054B000032027E12078000724D56069002810D058
:1054C000012095490860FFF787F8050093480068B8
:1054D000800717D4FFF780F8401B0328F6D303207A
:1054E00010E100208C490860FFF776F805008B4832
:1054F0000068800706D5FFF76FF8401B0328F6D336
:105500000320FFE0207840077CD50027DFF81082D9
:10551000D8F80000C0000FD400200090D8F8000098
:1055200050F08050C8F80000D8F8000010F080500B
:105530000090009801200700DFF8E891D9F80000FA
:10554000C00513D4D9F8000050F48070C9F80000E9
:10555000FFF742F80500D9F80000C00506D4FFF7B0
:105560003BF8401B0328F6D30320CBE0A0680128BA
:1055700005D16D48016851F00101016015E0A06896
:10558000052809D16848016851F0040101600168EB
:1055900051F00101016008E06348016849084900D1
:1055A0000160016831F004010160A06800280FD09B
:1055B000FFF712F805005C480068800718D4FFF771
:1055C0000BF8401B41F289318842F4D3032099E063
:1055D000FFF702F8050054480068800708D5FEF779
:1055E000FBFF401B41F289318842F4D3032089E05C
:1055F0003800C0B2012805D1D8F8000030F0805042
:10560000C8F80000A06900287BD03F48006810F06F
:105610000C00082849D0A069022835D1DFF80C9188
:105620000020C9F80000FEF7D7FF0700DFF8E08090
:10563000D8F80000800106D5FEF7CEFFC01B032876
:10564000F4D303205EE0E169206A0143606A51EA15
:105650008011A06A4008401E51EA0041E06A51EA08
:1056600000612A4801600120C9F80000FEF7B4FF7C
:105670000500D8F80000800143D4FEF7ADFF401BC1
:105680000328F6D303203DE0002028490860FEF7F8
:10569000A3FF05001E480068800132D5FEF79CFF7D
:1056A000401B0328F6D303202CE0A069012801D178
:1056B000012027E0154800680600A06901281ED0D7
:1056C00016F48000E169884219D116F03F00216A82
:1056D000884214D147F6C0703040616AB0EB811F38
:1056E0000DD116F44030A16A4908491EB0EB014FB4
:1056F00005D116F07060E16AB0EB016F01D00120B6
:1057000000E00020BDE8F28308380240043802407F
:105710000038024000004742800E47427438024081
:10572000403802400070004070380240600047423C
:1057300010B410F00703DFF8344122684FF6FF0180
:105740000A4052EA0322DFF828110A43226010BC03
:105750007047DFF818010068C0F3022070470000AE
:10576000010049B200290AD4012210F01F018A4029
:10577000DFF8001103005BB25B0941F8232070479A
:1057800010B4020052B2002A05D40A013A4B0400B8
:1057900064B21A5508E00A01384B040064B214F0F0
:1057A0000F041B1903F8042C10BC704770B40300DD
:1057B00013F00704D4F10700052801D3042001E009
:1057C000D4F10700251D072D01D2002500E0E51EBC
:1057D000012616FA00F0401E0140A94016FA05F510
:1057E0006D1E2A401143080070BC704710B50400BC
:1057F000601EB0F1807F01D301200EE0601E2049C1
:1058000008600F215FF0FF30FFF7BAFF00201D494D
:10581000086007201C490860002010BD10B5040076
:105820002000FFF785FF10BD2DE9F04104000D00B9
:1058300016000027FFF78DFF804632002900404602
:10584000FFF7B4FF0100200040B2FFF799FFBDE869
:10585000F08110B50400200040B2FFF781FF10BDB9
:1058600010B504002000FFF7C1FF10BD0CED00E0F3
:105870000000FA0500E100E000E400E018ED00E0BF
:1058800014E000E018E000E010E000E081B000204B
:1058900000900C48016851F480410160006810F4E8
:1058A000804000900098002000900748016851F067
:1058B00080510160006810F080500090009801B0A5
:1058C000704700BF443802404038024010B5040021
:1058D000002C01D101202FE094F83D00002805D1D3
:1058E000002084F83C002000FFF7EEFA022084F844
:1058F0003D00211D206800F0C8F9012084F8460011
:10590000012084F83E00012084F83F00012084F843
:105910004000012084F84100012084F84200012069
:1059200084F84300012084F84400012084F84500F5
:10593000012084F83D00002010BD010091F83D00D9
:10594000012801D0012034E0022081F83D000868E0
:10595000DFF86030984217D00868B0F1804F13D05C
:105960000868DFF8543098420ED00868DFF84C30F1
:10597000984209D00868DFF84830984204D0086897
:10598000DFF8943198420DD10868806810F0070064
:105990000200062A0CD00868006850F001000B686D
:1059A000186005E00868006850F001000B68186096
:1059B0000020704700000140000400400008004043
:1059C000000C004010B50400002C01D101202FE094
:1059D00094F83D00002805D1002084F83C00200008
:1059E000FFF728FB022084F83D00211D206800F00D
:1059F0004CF9012084F84600012084F83E00012083
:105A000084F83F00012084F84000012084F8410020
:105A1000012084F84200012084F84300012084F82A
:105A20004400012084F84500012084F83D00002056
:105A300010BD70B505000C00002C02D195F83E0099
:105A40000BE0042C02D195F83F0006E0082C02D1AF
:105A500095F8400001E095F84100012801D00120AF
:105A600057E0002C04D1022085F83E00C0B211E0BE
:105A7000042C04D1022085F83F00C0B20AE0082CB3
:105A800004D1022085F84000C0B203E0022085F86E
:105A90004100C0B201222100286800F08DFADFF831
:105AA0007C002968814205D12968496C51F4004184
:105AB0002A6851642968814216D02868B0F1804F65
:105AC00012D02868DFF8581088420DD02868DFF817
:105AD0005410884208D02868DFF84C10884203D060
